{
  "_format": "hh-sol-artifact-1",
  "contractName": "CronUpkeepFactory",
  "sourceName": "@chainlink/contracts/src/v0.8/factories/CronUpkeepFactory.sol",
  "abi": [
    {
      "inputs": [],
      "stateMutability": "nonpayable",
      "type": "constructor"
    },
    {
      "anonymous": false,
      "inputs": [
        {
          "indexed": false,
          "internalType": "address",
          "name": "upkeep",
          "type": "address"
        },
        {
          "indexed": false,
          "internalType": "address",
          "name": "owner",
          "type": "address"
        }
      ],
      "name": "NewCronUpkeepCreated",
      "type": "event"
    },
    {
      "anonymous": false,
      "inputs": [
        {
          "indexed": true,
          "internalType": "address",
          "name": "from",
          "type": "address"
        },
        {
          "indexed": true,
          "internalType": "address",
          "name": "to",
          "type": "address"
        }
      ],
      "name": "OwnershipTransferRequested",
      "type": "event"
    },
    {
      "anonymous": false,
      "inputs": [
        {
          "indexed": true,
          "internalType": "address",
          "name": "from",
          "type": "address"
        },
        {
          "indexed": true,
          "internalType": "address",
          "name": "to",
          "type": "address"
        }
      ],
      "name": "OwnershipTransferred",
      "type": "event"
    },
    {
      "inputs": [],
      "name": "acceptOwnership",
      "outputs": [],
      "stateMutability": "nonpayable",
      "type": "function"
    },
    {
      "inputs": [],
      "name": "cronDelegateAddress",
      "outputs": [
        {
          "internalType": "address",
          "name": "",
          "type": "address"
        }
      ],
      "stateMutability": "view",
      "type": "function"
    },
    {
      "inputs": [
        {
          "internalType": "address",
          "name": "target",
          "type": "address"
        },
        {
          "internalType": "bytes",
          "name": "handler",
          "type": "bytes"
        },
        {
          "internalType": "string",
          "name": "cronString",
          "type": "string"
        }
      ],
      "name": "encodeCronJob",
      "outputs": [
        {
          "internalType": "bytes",
          "name": "",
          "type": "bytes"
        }
      ],
      "stateMutability": "pure",
      "type": "function"
    },
    {
      "inputs": [
        {
          "internalType": "string",
          "name": "cronString",
          "type": "string"
        }
      ],
      "name": "encodeCronString",
      "outputs": [
        {
          "internalType": "bytes",
          "name": "",
          "type": "bytes"
        }
      ],
      "stateMutability": "pure",
      "type": "function"
    },
    {
      "inputs": [],
      "name": "newCronUpkeep",
      "outputs": [],
      "stateMutability": "nonpayable",
      "type": "function"
    },
    {
      "inputs": [
        {
          "internalType": "bytes",
          "name": "encodedJob",
          "type": "bytes"
        }
      ],
      "name": "newCronUpkeepWithJob",
      "outputs": [],
      "stateMutability": "nonpayable",
      "type": "function"
    },
    {
      "inputs": [],
      "name": "owner",
      "outputs": [
        {
          "internalType": "address",
          "name": "",
          "type": "address"
        }
      ],
      "stateMutability": "view",
      "type": "function"
    },
    {
      "inputs": [],
      "name": "s_maxJobs",
      "outputs": [
        {
          "internalType": "uint256",
          "name": "",
          "type": "uint256"
        }
      ],
      "stateMutability": "view",
      "type": "function"
    },
    {
      "inputs": [
        {
          "internalType": "uint256",
          "name": "maxJobs",
          "type": "uint256"
        }
      ],
      "name": "setMaxJobs",
      "outputs": [],
      "stateMutability": "nonpayable",
      "type": "function"
    },
    {
      "inputs": [
        {
          "internalType": "address",
          "name": "to",
          "type": "address"
        }
      ],
      "name": "transferOwnership",
      "outputs": [],
      "stateMutability": "nonpayable",
      "type": "function"
    }
  ],
  "bytecode": "0x60a060405260056002553480156200001657600080fd5b50338060008073ffffffffffffffffffffffffffffffffffffffff168273ffffffffffffffffffffffffffffffffffffffff1614156200008d576040517f08c379a000000000000000000000000000000000000000000000000000000000815260040162000084906200030b565b60405180910390fd5b816000806101000a81548173ffffffffffffffffffffffffffffffffffffffff021916908373ffffffffffffffffffffffffffffffffffffffff160217905550600073ffffffffffffffffffffffffffffffffffffffff168173ffffffffffffffffffffffffffffffffffffffff1614620001145762000113816200017f60201b60201c565b5b5050506040516200012590620002af565b604051809103906000f08015801562000142573d6000803e3d6000fd5b5073ffffffffffffffffffffffffffffffffffffffff1660808173ffffffffffffffffffffffffffffffffffffffff1660601b81525050620003b2565b3373ffffffffffffffffffffffffffffffffffffffff168173ffffffffffffffffffffffffffffffffffffffff161415620001f1576040517f08c379a0000000000000000000000000000000000000000000000000000000008152600401620001e8906200032d565b60405180910390fd5b80600160006101000a81548173ffffffffffffffffffffffffffffffffffffffff021916908373ffffffffffffffffffffffffffffffffffffffff1602179055508073ffffffffffffffffffffffffffffffffffffffff1660008054906101000a900473ffffffffffffffffffffffffffffffffffffffff1673ffffffffffffffffffffffffffffffffffffffff167fed8889f560326eb138920d842192f0eb3dd22b4f139c87a2c57538e05bae127860405160405180910390a350565b611df98062007df783390190565b6000620002cc6018836200034f565b9150620002d98262000360565b602082019050919050565b6000620002f36017836200034f565b9150620003008262000389565b602082019050919050565b600060208201905081810360008301526200032681620002bd565b9050919050565b600060208201905081810360008301526200034881620002e4565b9050919050565b600082825260208201905092915050565b7f43616e6e6f7420736574206f776e657220746f207a65726f0000000000000000600082015250565b7f43616e6e6f74207472616e7366657220746f2073656c66000000000000000000600082015250565b60805160601c617a1f620003d86000396000818161047d015261059d0152617a1f6000f3fe60806040523480156200001157600080fd5b5060043610620000ac5760003560e01c8063a1ef9e7b116200006f578063a1ef9e7b1462000143578063cab53eed1462000165578063d3b298531462000185578063ebfe2b8014620001bb578063f2fde38b14620001db57620000ac565b806347b1fa0714620000b15780637500a69914620000e757806379ba509714620001095780638da5cb5b146200011557806398092b711462000137575b600080fd5b620000cf6004803603810190620000c9919062000d4e565b620001fb565b604051620000de9190620011b3565b60405180910390f35b620000f162000296565b60405162000100919062001261565b60405180910390f35b620001136200029c565b005b6200011f62000434565b6040516200012e9190620010d0565b60405180910390f35b620001416200045d565b005b6200014d62000479565b6040516200015c9190620010d0565b60405180910390f35b6200018360048036038101906200017d919062000dd2565b620004a1565b005b620001a360048036038101906200019d919062000c12565b620004b5565b604051620001b29190620011b3565b60405180910390f35b620001d96004803603810190620001d3919062000cac565b62000579565b005b620001f96004803603810190620001f3919062000be0565b62000617565b005b606073__$2a5f91f3b8d172a11a2b02e40add8b4c78$__63e04b9769836040518263ffffffff1660e01b8152600401620002369190620011d7565b60006040518083038186803b1580156200024f57600080fd5b505af415801562000264573d6000803e3d6000fd5b505050506040513d6000823e3d601f19601f820116820180604052508101906200028f919062000cfd565b9050919050565b60025481565b600160009054906101000a900473ffffffffffffffffffffffffffffffffffffffff1673ffffffffffffffffffffffffffffffffffffffff163373ffffffffffffffffffffffffffffffffffffffff16146200032f576040517f08c379a00000000000000000000000000000000000000000000000000000000081526004016200032690620011fb565b60405180910390fd5b60008060009054906101000a900473ffffffffffffffffffffffffffffffffffffffff169050336000806101000a81548173ffffffffffffffffffffffffffffffffffffffff021916908373ffffffffffffffffffffffffffffffffffffffff1602179055506000600160006101000a81548173ffffffffffffffffffffffffffffffffffffffff021916908373ffffffffffffffffffffffffffffffffffffffff1602179055503373ffffffffffffffffffffffffffffffffffffffff168173ffffffffffffffffffffffffffffffffffffffff167f8be0079c531659141344cd1fd0a4f28419497f9722a3daafe3b4186f6b6457e060405160405180910390a350565b60008060009054906101000a900473ffffffffffffffffffffffffffffffffffffffff16905090565b620004776040518060200160405280600081525062000579565b565b60007f0000000000000000000000000000000000000000000000000000000000000000905090565b620004ab6200062f565b8060028190555050565b6060600073__$2a5f91f3b8d172a11a2b02e40add8b4c78$__6336d24def846040518263ffffffff1660e01b8152600401620004f29190620011d7565b6114006040518083038186803b1580156200050c57600080fd5b505af415801562000521573d6000803e3d6000fd5b505050506040513d601f19601f8201168201806040525081019062000547919062000d9f565b905084848260405160200162000560939291906200116e565b6040516020818303038152906040529150509392505050565b7f959d571686b1c9343b61bdc3c0459760cb9695fcd4c4c64845e3b2cdd6865ced337f000000000000000000000000000000000000000000000000000000000000000060025484604051620005ce90620007f2565b620005dd94939291906200111a565b604051809103906000f080158015620005fa573d6000803e3d6000fd5b50336040516200060c929190620010ed565b60405180910390a150565b620006216200062f565b6200062c81620006c2565b50565b60008054906101000a900473ffffffffffffffffffffffffffffffffffffffff1673ffffffffffffffffffffffffffffffffffffffff163373ffffffffffffffffffffffffffffffffffffffff1614620006c0576040517f08c379a0000000000000000000000000000000000000000000000000000000008152600401620006b7906200121d565b60405180910390fd5b565b3373ffffffffffffffffffffffffffffffffffffffff168173ffffffffffffffffffffffffffffffffffffffff16141562000734576040517f08c379a00000000000000000000000000000000000000000000000000000000081526004016200072b906200123f565b60405180910390fd5b80600160006101000a81548173ffffffffffffffffffffffffffffffffffffffff021916908373ffffffffffffffffffffffffffffffffffffffff1602179055508073ffffffffffffffffffffffffffffffffffffffff1660008054906101000a900473ffffffffffffffffffffffffffffffffffffffff1673ffffffffffffffffffffffffffffffffffffffff167fed8889f560326eb138920d842192f0eb3dd22b4f139c87a2c57538e05bae127860405160405180910390a350565b6163ca806200162083390190565b6000620008176200081184620012a7565b6200127e565b9050808285602086028201111562000834576200083362001509565b5b60005b858110156200086857816200084d888262000bc9565b84526020840193506020830192505060018101905062000837565b5050509392505050565b6000620008896200088384620012d0565b6200127e565b905082815260208101848484011115620008a857620008a76200150e565b5b620008b584828562001426565b509392505050565b6000620008d4620008ce84620012d0565b6200127e565b905082815260208101848484011115620008f357620008f26200150e565b5b6200090084828562001435565b509392505050565b60006200091f620009198462001306565b6200127e565b9050828152602081018484840111156200093e576200093d6200150e565b5b6200094b84828562001426565b509392505050565b6000813590506200096481620015c0565b92915050565b600082601f830112620009825762000981620014ff565b5b601a6200099184828562000800565b91505092915050565b600082601f830112620009b257620009b1620014ff565b5b8135620009c484826020860162000872565b91505092915050565b600082601f830112620009e557620009e4620014ff565b5b8151620009f7848260208601620008bd565b91505092915050565b60008151905062000a1181620015da565b92915050565b600082601f83011262000a2f5762000a2e620014ff565b5b813562000a4184826020860162000908565b91505092915050565b6000610400828403121562000a645762000a6362001504565b5b62000a7060e06200127e565b9050600062000a828482850162000a00565b600083015250602062000a988482850162000bc9565b602083015250604062000aae8482850162000bc9565b604083015250606062000ac48482850162000bc9565b606083015250608062000ada8482850162000bc9565b60808301525060a062000af08482850162000bc9565b60a08301525060c062000b06848285016200096a565b60c08301525092915050565b6000611400828403121562000b2c5762000b2b62001504565b5b62000b3860a06200127e565b9050600062000b4a8482850162000a4a565b60008301525061040062000b618482850162000a4a565b60208301525061080062000b788482850162000a4a565b604083015250610c0062000b8f8482850162000a4a565b60608301525061100062000ba68482850162000a4a565b60808301525092915050565b60008135905062000bc381620015eb565b92915050565b60008151905062000bda8162001605565b92915050565b60006020828403121562000bf95762000bf862001518565b5b600062000c098482850162000953565b91505092915050565b60008060006060848603121562000c2e5762000c2d62001518565b5b600062000c3e8682870162000953565b935050602084013567ffffffffffffffff81111562000c625762000c6162001513565b5b62000c70868287016200099a565b925050604084013567ffffffffffffffff81111562000c945762000c9362001513565b5b62000ca28682870162000a17565b9150509250925092565b60006020828403121562000cc55762000cc462001518565b5b600082013567ffffffffffffffff81111562000ce65762000ce562001513565b5b62000cf4848285016200099a565b91505092915050565b60006020828403121562000d165762000d1562001518565b5b600082015167ffffffffffffffff81111562000d375762000d3662001513565b5b62000d4584828501620009cd565b91505092915050565b60006020828403121562000d675762000d6662001518565b5b600082013567ffffffffffffffff81111562000d885762000d8762001513565b5b62000d968482850162000a17565b91505092915050565b6000611400828403121562000db95762000db862001518565b5b600062000dc98482850162000b12565b91505092915050565b60006020828403121562000deb5762000dea62001518565b5b600062000dfb8482850162000bb2565b91505092915050565b600062000e128383620010bf565b60208301905092915050565b62000e2981620013b2565b82525050565b62000e3a8162001346565b62000e46818462001374565b925062000e53826200133c565b8060005b8381101562000e8a57815162000e6e878262000e04565b965062000e7b8362001367565b92505060018101905062000e57565b505050505050565b600062000e9f8262001351565b62000eab81856200137f565b935062000ebd81856020860162001435565b62000ec8816200151d565b840191505092915050565b62000ede8162001412565b82525050565b600062000ef1826200135c565b62000efd8185620013a1565b935062000f0f81856020860162001435565b62000f1a816200151d565b840191505092915050565b600062000f3460168362001390565b915062000f41826200152e565b602082019050919050565b600062000f5b60168362001390565b915062000f688262001557565b602082019050919050565b600062000f8260178362001390565b915062000f8f8262001580565b602082019050919050565b6104008201600082015162000fb3600085018262000ed3565b50602082015162000fc86020850182620010bf565b50604082015162000fdd6040850182620010bf565b50606082015162000ff26060850182620010bf565b506080820151620010076080850182620010bf565b5060a08201516200101c60a0850182620010bf565b5060c08201516200103160c085018262000e2f565b50505050565b6114008201600082015162001050600085018262000f9a565b5060208201516200106661040085018262000f9a565b5060408201516200107c61080085018262000f9a565b50606082015162001092610c0085018262000f9a565b506080820151620010a861100085018262000f9a565b50505050565b620010b981620013fb565b82525050565b620010ca8162001405565b82525050565b6000602082019050620010e7600083018462000e1e565b92915050565b600060408201905062001104600083018562000e1e565b62001113602083018462000e1e565b9392505050565b600060808201905062001131600083018762000e1e565b62001140602083018662000e1e565b6200114f6040830185620010ae565b818103606083015262001163818462000e92565b905095945050505050565b60006114408201905062001186600083018662000e1e565b81810360208301526200119a818562000e92565b9050620011ab604083018462001037565b949350505050565b60006020820190508181036000830152620011cf818462000e92565b905092915050565b60006020820190508181036000830152620011f3818462000ee4565b905092915050565b60006020820190508181036000830152620012168162000f25565b9050919050565b60006020820190508181036000830152620012388162000f4c565b9050919050565b600060208201905081810360008301526200125a8162000f73565b9050919050565b6000602082019050620012786000830184620010ae565b92915050565b60006200128a6200129d565b90506200129882826200146b565b919050565b6000604051905090565b600067ffffffffffffffff821115620012c557620012c4620014d0565b5b602082029050919050565b600067ffffffffffffffff821115620012ee57620012ed620014d0565b5b620012f9826200151d565b9050602081019050919050565b600067ffffffffffffffff821115620013245762001323620014d0565b5b6200132f826200151d565b9050602081019050919050565b6000819050919050565b6000601a9050919050565b600081519050919050565b600081519050919050565b6000602082019050919050565b600081905092915050565b600082825260208201905092915050565b600082825260208201905092915050565b600082825260208201905092915050565b6000620013bf82620013db565b9050919050565b6000819050620013d682620015a9565b919050565b600073ffffffffffffffffffffffffffffffffffffffff82169050919050565b6000819050919050565b600060ff82169050919050565b60006200141f82620013c6565b9050919050565b82818337600083830152505050565b60005b838110156200145557808201518184015260208101905062001438565b8381111562001465576000848401525b50505050565b62001476826200151d565b810181811067ffffffffffffffff82111715620014985762001497620014d0565b5b80604052505050565b7f4e487b7100000000000000000000000000000000000000000000000000000000600052602160045260246000fd5b7f4e487b7100000000000000000000000000000000000000000000000000000000600052604160045260246000fd5b600080fd5b600080fd5b600080fd5b600080fd5b600080fd5b600080fd5b6000601f19601f8301169050919050565b7f4d7573742062652070726f706f736564206f776e657200000000000000000000600082015250565b7f4f6e6c792063616c6c61626c65206279206f776e657200000000000000000000600082015250565b7f43616e6e6f74207472616e7366657220746f2073656c66000000000000000000600082015250565b60058110620015bd57620015bc620014a1565b5b50565b620015cb81620013b2565b8114620015d757600080fd5b50565b60058110620015e857600080fd5b50565b620015f681620013fb565b81146200160257600080fd5b50565b620016108162001405565b81146200161c57600080fd5b5056fe60c060405260016002553480156200001657600080fd5b50604051620063ca380380620063ca83398181016040528101906200003c919062000f13565b838060008073ffffffffffffffffffffffffffffffffffffffff168273ffffffffffffffffffffffffffffffffffffffff161415620000b2576040517f08c379a0000000000000000000000000000000000000000000000000000000008152600401620000a990620010f6565b60405180910390fd5b816000806101000a81548173ffffffffffffffffffffffffffffffffffffffff021916908373ffffffffffffffffffffffffffffffffffffffff160217905550600073ffffffffffffffffffffffffffffffffffffffff168173ffffffffffffffffffffffffffffffffffffffff161462000139576200013881620001e360201b60201c565b5b5050506000600160146101000a81548160ff0219169083151502179055508273ffffffffffffffffffffffffffffffffffffffff1660808173ffffffffffffffffffffffffffffffffffffffff1660601b815250508160a08181525050600081511115620001d957600080600083806020019051810190620001bc919062000e97565b925092509250620001d58383836200031360201b60201c565b5050505b5050505062001534565b3373ffffffffffffffffffffffffffffffffffffffff168173ffffffffffffffffffffffffffffffffffffffff16141562000255576040517f08c379a00000000000000000000000000000000000000000000000000000000081526004016200024c9062001118565b60405180910390fd5b80600160006101000a81548173ffffffffffffffffffffffffffffffffffffffff021916908373ffffffffffffffffffffffffffffffffffffffff1602179055508073ffffffffffffffffffffffffffffffffffffffff1660008054906101000a900473ffffffffffffffffffffffffffffffffffffffff1673ffffffffffffffffffffffffffffffffffffffff167fed8889f560326eb138920d842192f0eb3dd22b4f139c87a2c57538e05bae127860405160405180910390a350565b60006002549050620003358160036200095760201b62001b8c1790919060201c565b50836007600083815260200190815260200160002060006101000a81548173ffffffffffffffffffffffffffffffffffffffff021916908373ffffffffffffffffffffffffffffffffffffffff16021790555082600860008381526020019081526020016000209080519060200190620003b192919062000a4b565b50816006600083815260200190815260200160002060008201518160000160008201518160000160006101000a81548160ff02191690836004811115620003fd57620003fc620013a0565b5b021790555060208201518160000160016101000a81548160ff021916908360ff16021790555060408201518160000160026101000a81548160ff021916908360ff16021790555060608201518160000160036101000a81548160ff021916908360ff16021790555060808201518160000160046101000a81548160ff021916908360ff16021790555060a08201518160000160056101000a81548160ff021916908360ff16021790555060c08201518160010190601a620004c092919062000adc565b50505060208201518160020160008201518160000160006101000a81548160ff02191690836004811115620004fa57620004f9620013a0565b5b021790555060208201518160000160016101000a81548160ff021916908360ff16021790555060408201518160000160026101000a81548160ff021916908360ff16021790555060608201518160000160036101000a81548160ff021916908360ff16021790555060808201518160000160046101000a81548160ff021916908360ff16021790555060a08201518160000160056101000a81548160ff021916908360ff16021790555060c08201518160010190601a620005bd92919062000adc565b50505060408201518160040160008201518160000160006101000a81548160ff02191690836004811115620005f757620005f6620013a0565b5b021790555060208201518160000160016101000a81548160ff021916908360ff16021790555060408201518160000160026101000a81548160ff021916908360ff16021790555060608201518160000160036101000a81548160ff021916908360ff16021790555060808201518160000160046101000a81548160ff021916908360ff16021790555060a08201518160000160056101000a81548160ff021916908360ff16021790555060c08201518160010190601a620006ba92919062000adc565b50505060608201518160060160008201518160000160006101000a81548160ff02191690836004811115620006f457620006f3620013a0565b5b021790555060208201518160000160016101000a81548160ff021916908360ff16021790555060408201518160000160026101000a81548160ff021916908360ff16021790555060608201518160000160036101000a81548160ff021916908360ff16021790555060808201518160000160046101000a81548160ff021916908360ff16021790555060a08201518160000160056101000a81548160ff021916908360ff16021790555060c08201518160010190601a620007b792919062000adc565b50505060808201518160080160008201518160000160006101000a81548160ff02191690836004811115620007f157620007f0620013a0565b5b021790555060208201518160000160016101000a81548160ff021916908360ff16021790555060408201518160000160026101000a81548160ff021916908360ff16021790555060608201518160000160036101000a81548160ff021916908360ff16021790555060808201518160000160046101000a81548160ff021916908360ff16021790555060a08201518160000160056101000a81548160ff021916908360ff16021790555060c08201518160010190601a620008b492919062000adc565b505050905050426005600083815260200190815260200160002081905550620008e484846200097960201b60201c565b6009600083815260200190815260200160002081905550600260008154809291906200091090620012fb565b9190505550807fe66fb0bca0f9d6a395d3eaf5f39c6ac87dd34aff4e3f2f9a9b33a46f15589627858560405162000949929190620010c2565b60405180910390a250505050565b600062000971836000018360001b620009ae60201b60201c565b905092915050565b600082826040516020016200099092919062001096565b60405160208183030381529060405280519060200120905092915050565b6000620009c2838362000a2860201b60201c565b62000a1d57826000018290806001815401808255809150506001900390600052602060002001600090919091909150558260000180549050836001016000848152602001908152602001600020819055506001905062000a22565b600090505b92915050565b600080836001016000848152602001908152602001600020541415905092915050565b82805462000a59906200128f565b90600052602060002090601f01602090048101928262000a7d576000855562000ac9565b82601f1062000a9857805160ff191683800117855562000ac9565b8280016001018555821562000ac9579182015b8281111562000ac857825182559160200191906001019062000aab565b5b50905062000ad8919062000b7d565b5090565b82601a601f0160209004810192821562000b6a5791602002820160005b8382111562000b3957835183826101000a81548160ff021916908360ff160217905550926020019260010160208160000104928301926001030262000af9565b801562000b685782816101000a81549060ff021916905560010160208160000104928301926001030262000b39565b505b50905062000b79919062000b7d565b5090565b5b8082111562000b9857600081600090555060010162000b7e565b5090565b600062000bb362000bad8462001163565b6200113a565b9050808285602086028201111562000bd05762000bcf62001437565b5b60005b8581101562000c04578162000be9888262000e80565b84526020840193506020830192505060018101905062000bd3565b5050509392505050565b600062000c2562000c1f846200118c565b6200113a565b90508281526020810184848401111562000c445762000c436200143c565b5b62000c5184828562001259565b509392505050565b60008151905062000c6a81620014bb565b92915050565b60008151905062000c8181620014d5565b92915050565b600082601f83011262000c9f5762000c9e6200142d565b5b601a62000cae84828562000b9c565b91505092915050565b600082601f83011262000ccf5762000cce6200142d565b5b815162000ce184826020860162000c0e565b91505092915050565b60008151905062000cfb81620014ef565b92915050565b6000610400828403121562000d1b5762000d1a62001432565b5b62000d2760e06200113a565b9050600062000d398482850162000cea565b600083015250602062000d4f8482850162000e80565b602083015250604062000d658482850162000e80565b604083015250606062000d7b8482850162000e80565b606083015250608062000d918482850162000e80565b60808301525060a062000da78482850162000e80565b60a08301525060c062000dbd8482850162000c87565b60c08301525092915050565b6000611400828403121562000de35762000de262001432565b5b62000def60a06200113a565b9050600062000e018482850162000d01565b60008301525061040062000e188482850162000d01565b60208301525061080062000e2f8482850162000d01565b604083015250610c0062000e468482850162000d01565b60608301525061100062000e5d8482850162000d01565b60808301525092915050565b60008151905062000e7a8162001500565b92915050565b60008151905062000e91816200151a565b92915050565b6000806000611440848603121562000eb45762000eb362001446565b5b600062000ec48682870162000c70565b935050602084015167ffffffffffffffff81111562000ee85762000ee762001441565b5b62000ef68682870162000cb7565b925050604062000f098682870162000dc9565b9150509250925092565b6000806000806080858703121562000f305762000f2f62001446565b5b600062000f408782880162000c59565b945050602062000f538782880162000c59565b935050604062000f668782880162000e69565b925050606085015167ffffffffffffffff81111562000f8a5762000f8962001441565b5b62000f988782880162000cb7565b91505092959194509250565b62000faf81620011fa565b82525050565b62000fca62000fc482620011fa565b62001349565b82525050565b600062000fdd82620011c2565b62000fe98185620011cd565b935062000ffb81856020860162001259565b62001006816200144b565b840191505092915050565b60006200101e82620011c2565b6200102a8185620011de565b93506200103c81856020860162001259565b80840191505092915050565b600062001057601883620011e9565b9150620010648262001469565b602082019050919050565b60006200107e601783620011e9565b91506200108b8262001492565b602082019050919050565b6000620010a4828562000fb5565b601482019150620010b6828462001011565b91508190509392505050565b6000604082019050620010d9600083018562000fa4565b8181036020830152620010ed818462000fd0565b90509392505050565b60006020820190508181036000830152620011118162001048565b9050919050565b6000602082019050818103600083015262001133816200106f565b9050919050565b60006200114662001159565b9050620011548282620012c5565b919050565b6000604051905090565b600067ffffffffffffffff821115620011815762001180620013fe565b5b602082029050919050565b600067ffffffffffffffff821115620011aa57620011a9620013fe565b5b620011b5826200144b565b9050602081019050919050565b600081519050919050565b600082825260208201905092915050565b600081905092915050565b600082825260208201905092915050565b6000620012078262001222565b9050919050565b60006200121b8262001222565b9050919050565b600073ffffffffffffffffffffffffffffffffffffffff82169050919050565b6000819050919050565b600060ff82169050919050565b60005b83811015620012795780820151818401526020810190506200125c565b8381111562001289576000848401525b50505050565b60006002820490506001821680620012a857607f821691505b60208210811415620012bf57620012be620013cf565b5b50919050565b620012d0826200144b565b810181811067ffffffffffffffff82111715620012f257620012f1620013fe565b5b80604052505050565b6000620013088262001242565b91507fffffffffffffffffffffffffffffffffffffffffffffffffffffffffffffffff8214156200133e576200133d62001371565b5b600182019050919050565b600062001356826200135d565b9050919050565b60006200136a826200145c565b9050919050565b7f4e487b7100000000000000000000000000000000000000000000000000000000600052601160045260246000fd5b7f4e487b7100000000000000000000000000000000000000000000000000000000600052602160045260246000fd5b7f4e487b7100000000000000000000000000000000000000000000000000000000600052602260045260246000fd5b7f4e487b7100000000000000000000000000000000000000000000000000000000600052604160045260246000fd5b600080fd5b600080fd5b600080fd5b600080fd5b600080fd5b600080fd5b6000601f19601f8301169050919050565b60008160601b9050919050565b7f43616e6e6f7420736574206f776e657220746f207a65726f0000000000000000600082015250565b7f43616e6e6f74207472616e7366657220746f2073656c66000000000000000000600082015250565b620014c681620011fa565b8114620014d257600080fd5b50565b620014e0816200120e565b8114620014ec57600080fd5b50565b60058110620014fd57600080fd5b50565b6200150b8162001242565b81146200151757600080fd5b50565b62001525816200124c565b81146200153157600080fd5b50565b60805160601c60a051614e5f6200156b6000396000818161143401526115f50152600081816114070152611bac0152614e5f6000f3fe6080604052600436106100e15760003560e01c806379ba50971161007f5780638da5cb5b116100595780638da5cb5b1461028e578063cb647f10146102b9578063ea87605b146102e4578063f2fde38b1461030d576100f0565b806379ba50971461023757806380fc37b31461024e5780638456cb5914610277576100f0565b80635077e92f116100bb5780635077e92f146101635780635c975abb146101a35780636e04ff0d146101ce5780637500a6991461020c576100f0565b8063245c3a8a146100fa5780633f4ba83a146101235780634585e33b1461013a576100f0565b366100f0576100ee610336565b005b6100f8610336565b005b34801561010657600080fd5b50610121600480360381019061011c9190613f33565b610350565b005b34801561012f57600080fd5b50610138610992565b005b34801561014657600080fd5b50610161600480360381019061015c9190613e15565b6109a4565b005b34801561016f57600080fd5b5061018a60048036038101906101859190613ed9565b610aea565b60405161019a9493929190614483565b60405180910390f35b3480156101af57600080fd5b506101b86113d7565b6040516101c591906144f8565b60405180910390f35b3480156101da57600080fd5b506101f560048036038101906101f09190613e15565b6113ee565b604051610203929190614513565b60405180910390f35b34801561021857600080fd5b50610221611432565b60405161022e91906145ff565b60405180910390f35b34801561024357600080fd5b5061024c611456565b005b34801561025a57600080fd5b5061027560048036038101906102709190613d8a565b6115eb565b005b34801561028357600080fd5b5061028c61167e565b005b34801561029a57600080fd5b506102a3611690565b6040516102b09190614438565b60405180910390f35b3480156102c557600080fd5b506102ce6116b9565b6040516102db91906144d6565b60405180910390f35b3480156102f057600080fd5b5061030b60048036038101906103069190613ed9565b611770565b005b34801561031957600080fd5b50610334600480360381019061032f9190613d5d565b611b78565b005b61033e611ba6565b61034e610349611ba8565b611bd0565b565b610358611bf6565b8361036d816003611c8690919063ffffffff16565b6103ae57806040517f453d079a0000000000000000000000000000000000000000000000000000000081526004016103a591906145ff565b60405180910390fd5b6000828060200190518101906103c49190613eab565b9050846007600088815260200190815260200160002060006101000a81548173ffffffffffffffffffffffffffffffffffffffff021916908373ffffffffffffffffffffffffffffffffffffffff1602179055508360086000888152602001908152602001600020908051906020019061043f9291906137fa565b50806006600088815260200190815260200160002060008201518160000160008201518160000160006101000a81548160ff0219169083600481111561048857610487614bb0565b5b021790555060208201518160000160016101000a81548160ff021916908360ff16021790555060408201518160000160026101000a81548160ff021916908360ff16021790555060608201518160000160036101000a81548160ff021916908360ff16021790555060808201518160000160046101000a81548160ff021916908360ff16021790555060a08201518160000160056101000a81548160ff021916908360ff16021790555060c08201518160010190601a610549929190613880565b50505060208201518160020160008201518160000160006101000a81548160ff021916908360048111156105805761057f614bb0565b5b021790555060208201518160000160016101000a81548160ff021916908360ff16021790555060408201518160000160026101000a81548160ff021916908360ff16021790555060608201518160000160036101000a81548160ff021916908360ff16021790555060808201518160000160046101000a81548160ff021916908360ff16021790555060a08201518160000160056101000a81548160ff021916908360ff16021790555060c08201518160010190601a610641929190613880565b50505060408201518160040160008201518160000160006101000a81548160ff0219169083600481111561067857610677614bb0565b5b021790555060208201518160000160016101000a81548160ff021916908360ff16021790555060408201518160000160026101000a81548160ff021916908360ff16021790555060608201518160000160036101000a81548160ff021916908360ff16021790555060808201518160000160046101000a81548160ff021916908360ff16021790555060a08201518160000160056101000a81548160ff021916908360ff16021790555060c08201518160010190601a610739929190613880565b50505060608201518160060160008201518160000160006101000a81548160ff021916908360048111156107705761076f614bb0565b5b021790555060208201518160000160016101000a81548160ff021916908360ff16021790555060408201518160000160026101000a81548160ff021916908360ff16021790555060608201518160000160036101000a81548160ff021916908360ff16021790555060808201518160000160046101000a81548160ff021916908360ff16021790555060a08201518160000160056101000a81548160ff021916908360ff16021790555060c08201518160010190601a610831929190613880565b50505060808201518160080160008201518160000160006101000a81548160ff0219169083600481111561086857610867614bb0565b5b021790555060208201518160000160016101000a81548160ff021916908360ff16021790555060408201518160000160026101000a81548160ff021916908360ff16021790555060608201518160000160036101000a81548160ff021916908360ff16021790555060808201518160000160046101000a81548160ff021916908360ff16021790555060a08201518160000160056101000a81548160ff021916908360ff16021790555060c08201518160010190601a610929929190613880565b5050509050506109398585611ca0565b6009600088815260200190815260200160002081905550857feeaf6ad42034ba5357ffd961b8c80bf6cbf53c224020541e46573a3f19ef09a58686604051610982929190614453565b60405180910390a2505050505050565b61099a611bf6565b6109a2611cd3565b565b6109ac611d36565b60008060008085858101906109c19190613fd2565b93509350935093506109d584848484611d80565b4260056000868152602001908152602001600020819055506000808373ffffffffffffffffffffffffffffffffffffffff1683604051610a159190614421565b6000604051808303816000865af19150503d8060008114610a52576040519150601f19603f3d011682016040523d82523d6000602084013e610a57565b606091505b509150915081610aa85785610a6b8261254f565b6040517fd3de9446000000000000000000000000000000000000000000000000000000008152600401610a9f92919061461a565b60405180910390fd5b857f30f05dfc7571f43926790e295bb282b76b7174d9121c31c2b26def175b63a75942604051610ad891906145ff565b60405180910390a25050505050505050565b6000606080600084610b06816003611c8690919063ffffffff16565b610b4757806040517f453d079a000000000000000000000000000000000000000000000000000000008152600401610b3e91906145ff565b60405180910390fd5b6000600660008881526020019081526020016000206040518060a0016040529081600082016040518060e00160405290816000820160009054906101000a900460ff166004811115610b9c57610b9b614bb0565b5b6004811115610bae57610bad614bb0565b5b81526020016000820160019054906101000a900460ff1660ff1660ff1681526020016000820160029054906101000a900460ff1660ff1660ff1681526020016000820160039054906101000a900460ff1660ff1660ff1681526020016000820160049054906101000a900460ff1660ff1660ff1681526020016000820160059054906101000a900460ff1660ff1660ff16815260200160018201601a806020026040519081016040528092919082601a8015610ca5576020028201916000905b82829054906101000a900460ff1660ff1681526020019060010190602082600001049283019260010382029150808411610c6e5790505b5050505050815250508152602001600282016040518060e00160405290816000820160009054906101000a900460ff166004811115610ce757610ce6614bb0565b5b6004811115610cf957610cf8614bb0565b5b81526020016000820160019054906101000a900460ff1660ff1660ff1681526020016000820160029054906101000a900460ff1660ff1660ff1681526020016000820160039054906101000a900460ff1660ff1660ff1681526020016000820160049054906101000a900460ff1660ff1660ff1681526020016000820160059054906101000a900460ff1660ff1660ff16815260200160018201601a806020026040519081016040528092919082601a8015610df0576020028201916000905b82829054906101000a900460ff1660ff1681526020019060010190602082600001049283019260010382029150808411610db95790505b5050505050815250508152602001600482016040518060e00160405290816000820160009054906101000a900460ff166004811115610e3257610e31614bb0565b5b6004811115610e4457610e43614bb0565b5b81526020016000820160019054906101000a900460ff1660ff1660ff1681526020016000820160029054906101000a900460ff1660ff1660ff1681526020016000820160039054906101000a900460ff1660ff1660ff1681526020016000820160049054906101000a900460ff1660ff1660ff1681526020016000820160059054906101000a900460ff1660ff1660ff16815260200160018201601a806020026040519081016040528092919082601a8015610f3b576020028201916000905b82829054906101000a900460ff1660ff1681526020019060010190602082600001049283019260010382029150808411610f045790505b5050505050815250508152602001600682016040518060e00160405290816000820160009054906101000a900460ff166004811115610f7d57610f7c614bb0565b5b6004811115610f8f57610f8e614bb0565b5b81526020016000820160019054906101000a900460ff1660ff1660ff1681526020016000820160029054906101000a900460ff1660ff1660ff1681526020016000820160039054906101000a900460ff1660ff1660ff1681526020016000820160049054906101000a900460ff1660ff1660ff1681526020016000820160059054906101000a900460ff1660ff1660ff16815260200160018201601a806020026040519081016040528092919082601a8015611086576020028201916000905b82829054906101000a900460ff1660ff168152602001906001019060208260000104928301926001038202915080841161104f5790505b5050505050815250508152602001600882016040518060e00160405290816000820160009054906101000a900460ff1660048111156110c8576110c7614bb0565b5b60048111156110da576110d9614bb0565b5b81526020016000820160019054906101000a900460ff1660ff1660ff1681526020016000820160029054906101000a900460ff1660ff1660ff1681526020016000820160039054906101000a900460ff1660ff1660ff1681526020016000820160049054906101000a900460ff1660ff1660ff1681526020016000820160059054906101000a900460ff1660ff1660ff16815260200160018201601a806020026040519081016040528092919082601a80156111d1576020028201916000905b82829054906101000a900460ff1660ff168152602001906001019060208260000104928301926001038202915080841161119a5790505b5050505050815250508152505090506007600088815260200190815260200160002060009054906101000a900473ffffffffffffffffffffffffffffffffffffffff166008600089815260200190815260200160002073__$2a5f91f3b8d172a11a2b02e40add8b4c78$__63a1ab24f4846040518263ffffffff1660e01b815260040161125e91906145e3565b60006040518083038186803b15801561127657600080fd5b505af415801561128a573d6000803e3d6000fd5b505050506040513d6000823e3d601f19601f820116820180604052508101906112b39190613e62565b73__$2a5f91f3b8d172a11a2b02e40add8b4c78$__6334373a3b856040518263ffffffff1660e01b81526004016112ea91906145e3565b60206040518083038186803b15801561130257600080fd5b505af4158015611316573d6000803e3d6000fd5b505050506040513d601f19601f8201168201806040525081019061133a9190613f06565b828054611346906149c5565b80601f0160208091040260200160405190810160405280929190818152602001828054611372906149c5565b80156113bf5780601f10611394576101008083540402835291602001916113bf565b820191906000526020600020905b8154815290600101906020018083116113a257829003601f168201915b50505050509250955095509550955050509193509193565b6000600160149054906101000a900460ff16905090565b600060606113fa611d36565b6114026125ba565b61142b7f0000000000000000000000000000000000000000000000000000000000000000611bd0565b9250929050565b7f000000000000000000000000000000000000000000000000000000000000000081565b600160009054906101000a900473ffffffffffffffffffffffffffffffffffffffff1673ffffffffffffffffffffffffffffffffffffffff163373ffffffffffffffffffffffffffffffffffffffff16146114e6576040517f08c379a00000000000000000000000000000000000000000000000000000000081526004016114dd90614563565b60405180910390fd5b60008060009054906101000a900473ffffffffffffffffffffffffffffffffffffffff169050336000806101000a81548173ffffffffffffffffffffffffffffffffffffffff021916908373ffffffffffffffffffffffffffffffffffffffff1602179055506000600160006101000a81548173ffffffffffffffffffffffffffffffffffffffff021916908373ffffffffffffffffffffffffffffffffffffffff1602179055503373ffffffffffffffffffffffffffffffffffffffff168173ffffffffffffffffffffffffffffffffffffffff167f8be0079c531659141344cd1fd0a4f28419497f9722a3daafe3b4186f6b6457e060405160405180910390a350565b6115f3611bf6565b7f000000000000000000000000000000000000000000000000000000000000000061161e6003612622565b10611655576040517f976395a400000000000000000000000000000000000000000000000000000000815260040160405180910390fd5b60008180602001905181019061166b9190613eab565b9050611678848483612637565b50505050565b611686611bf6565b61168e612c4d565b565b60008060009054906101000a900473ffffffffffffffffffffffffffffffffffffffff16905090565b606060006116c76003612622565b905060008167ffffffffffffffff8111156116e5576116e4614c6c565b5b6040519080825280602002602001820160405280156117135781602001602082028036833780820191505090505b50905060005b8281101561176757611735816003612caf90919063ffffffff16565b82828151811061174857611747614c3d565b5b602002602001018181525050808061175f90614a28565b915050611719565b50809250505090565b611778611bf6565b8061178d816003611c8690919063ffffffff16565b6117ce57806040517f453d079a0000000000000000000000000000000000000000000000000000000081526004016117c591906145ff565b60405180910390fd5b6005600083815260200190815260200160002060009055600660008381526020019081526020016000206000808201600080820160006101000a81549060ff02191690556000820160016101000a81549060ff02191690556000820160026101000a81549060ff02191690556000820160036101000a81549060ff02191690556000820160046101000a81549060ff02191690556000820160056101000a81549060ff0219169055600182016000611886919061391a565b505060028201600080820160006101000a81549060ff02191690556000820160016101000a81549060ff02191690556000820160026101000a81549060ff02191690556000820160036101000a81549060ff02191690556000820160046101000a81549060ff02191690556000820160056101000a81549060ff0219169055600182016000611915919061391a565b505060048201600080820160006101000a81549060ff02191690556000820160016101000a81549060ff02191690556000820160026101000a81549060ff02191690556000820160036101000a81549060ff02191690556000820160046101000a81549060ff02191690556000820160056101000a81549060ff02191690556001820160006119a4919061391a565b505060068201600080820160006101000a81549060ff02191690556000820160016101000a81549060ff02191690556000820160026101000a81549060ff02191690556000820160036101000a81549060ff02191690556000820160046101000a81549060ff02191690556000820160056101000a81549060ff0219169055600182016000611a33919061391a565b505060088201600080820160006101000a81549060ff02191690556000820160016101000a81549060ff02191690556000820160026101000a81549060ff02191690556000820160036101000a81549060ff02191690556000820160046101000a81549060ff02191690556000820160056101000a81549060ff0219169055600182016000611ac2919061391a565b505050506007600083815260200190815260200160002060006101000a81549073ffffffffffffffffffffffffffffffffffffffff0219169055600860008381526020019081526020016000206000611b1b9190613921565b6009600083815260200190815260200160002060009055611b46826003612cc990919063ffffffff16565b50817f7aaa5a7c35e162386d922bd67e91ea476d38d9bb931bc369d8b15ab11325097460405160405180910390a25050565b611b80611bf6565b611b8981612ce3565b50565b6000611b9e836000018360001b612e10565b905092915050565b565b60007f0000000000000000000000000000000000000000000000000000000000000000905090565b3660008037600080366000845af43d6000803e8060008114611bf1573d6000f35b3d6000fd5b60008054906101000a900473ffffffffffffffffffffffffffffffffffffffff1673ffffffffffffffffffffffffffffffffffffffff163373ffffffffffffffffffffffffffffffffffffffff1614611c84576040517f08c379a0000000000000000000000000000000000000000000000000000000008152600401611c7b90614583565b60405180910390fd5b565b6000611c98836000018360001b612e80565b905092915050565b60008282604051602001611cb59291906143f9565b60405160208183030381529060405280519060200120905092915050565b611cdb612ea3565b6000600160146101000a81548160ff0219169083151502179055507f5db9ee0a495bf2e6ff9c91a7834c1ba4fdd244a5e8aa4e537bd38aeae4b073aa611d1f612eec565b604051611d2c9190614438565b60405180910390a1565b611d3e6113d7565b15611d7e576040517f08c379a0000000000000000000000000000000000000000000000000000000008152600401611d75906145a3565b60405180910390fd5b565b603c83611d8d9190614af0565b83611d9891906148b5565b925082421015611dd4576040517fa0ef619600000000000000000000000000000000000000000000000000000000815260040160405180910390fd5b60056000858152602001908152602001600020548311611e20576040517f753a4acf00000000000000000000000000000000000000000000000000000000815260040160405180910390fd5b6124be600660008681526020019081526020016000206040518060a0016040529081600082016040518060e00160405290816000820160009054906101000a900460ff166004811115611e7657611e75614bb0565b5b6004811115611e8857611e87614bb0565b5b81526020016000820160019054906101000a900460ff1660ff1660ff1681526020016000820160029054906101000a900460ff1660ff1660ff1681526020016000820160039054906101000a900460ff1660ff1660ff1681526020016000820160049054906101000a900460ff1660ff1660ff1681526020016000820160059054906101000a900460ff1660ff1660ff16815260200160018201601a806020026040519081016040528092919082601a8015611f7f576020028201916000905b82829054906101000a900460ff1660ff1681526020019060010190602082600001049283019260010382029150808411611f485790505b5050505050815250508152602001600282016040518060e00160405290816000820160009054906101000a900460ff166004811115611fc157611fc0614bb0565b5b6004811115611fd357611fd2614bb0565b5b81526020016000820160019054906101000a900460ff1660ff1660ff1681526020016000820160029054906101000a900460ff1660ff1660ff1681526020016000820160039054906101000a900460ff1660ff1660ff1681526020016000820160049054906101000a900460ff1660ff1660ff1681526020016000820160059054906101000a900460ff1660ff1660ff16815260200160018201601a806020026040519081016040528092919082601a80156120ca576020028201916000905b82829054906101000a900460ff1660ff16815260200190600101906020826000010492830192600103820291508084116120935790505b5050505050815250508152602001600482016040518060e00160405290816000820160009054906101000a900460ff16600481111561210c5761210b614bb0565b5b600481111561211e5761211d614bb0565b5b81526020016000820160019054906101000a900460ff1660ff1660ff1681526020016000820160029054906101000a900460ff1660ff1660ff1681526020016000820160039054906101000a900460ff1660ff1660ff1681526020016000820160049054906101000a900460ff1660ff1660ff1681526020016000820160059054906101000a900460ff1660ff1660ff16815260200160018201601a806020026040519081016040528092919082601a8015612215576020028201916000905b82829054906101000a900460ff1660ff16815260200190600101906020826000010492830192600103820291508084116121de5790505b5050505050815250508152602001600682016040518060e00160405290816000820160009054906101000a900460ff16600481111561225757612256614bb0565b5b600481111561226957612268614bb0565b5b81526020016000820160019054906101000a900460ff1660ff1660ff1681526020016000820160029054906101000a900460ff1660ff1660ff1681526020016000820160039054906101000a900460ff1660ff1660ff1681526020016000820160049054906101000a900460ff1660ff1660ff1681526020016000820160059054906101000a900460ff1660ff1660ff16815260200160018201601a806020026040519081016040528092919082601a8015612360576020028201916000905b82829054906101000a900460ff1660ff16815260200190600101906020826000010492830192600103820291508084116123295790505b5050505050815250508152602001600882016040518060e00160405290816000820160009054906101000a900460ff1660048111156123a2576123a1614bb0565b5b60048111156123b4576123b3614bb0565b5b81526020016000820160019054906101000a900460ff1660ff1660ff1681526020016000820160029054906101000a900460ff1660ff1660ff1681526020016000820160039054906101000a900460ff1660ff1660ff1681526020016000820160049054906101000a900460ff1660ff1660ff1681526020016000820160059054906101000a900460ff1660ff1660ff16815260200160018201601a806020026040519081016040528092919082601a80156124ab576020028201916000905b82829054906101000a900460ff1660ff16815260200190600101906020826000010492830192600103820291508084116124745790505b5050505050815250508152505084612ef4565b6124f4576040517f1653b6bd00000000000000000000000000000000000000000000000000000000815260040160405180910390fd5b60096000858152602001908152602001600020546125128383611ca0565b14612549576040517fd8f59fa500000000000000000000000000000000000000000000000000000000815260040160405180910390fd5b50505050565b6060604482511015612598576040518060400160405280601d81526020017f7472616e73616374696f6e2072657665727465642073696c656e746c7900000081525090506125b5565b600482019150818060200190518101906125b29190613e62565b90505b919050565b600073ffffffffffffffffffffffffffffffffffffffff163273ffffffffffffffffffffffffffffffffffffffff1614612620576040517fb60ac5db00000000000000000000000000000000000000000000000000000000815260040160405180910390fd5b565b600061263082600001612f6b565b9050919050565b60006002549050612652816003611b8c90919063ffffffff16565b50836007600083815260200190815260200160002060006101000a81548173ffffffffffffffffffffffffffffffffffffffff021916908373ffffffffffffffffffffffffffffffffffffffff160217905550826008600083815260200190815260200160002090805190602001906126cc9291906137fa565b50816006600083815260200190815260200160002060008201518160000160008201518160000160006101000a81548160ff0219169083600481111561271557612714614bb0565b5b021790555060208201518160000160016101000a81548160ff021916908360ff16021790555060408201518160000160026101000a81548160ff021916908360ff16021790555060608201518160000160036101000a81548160ff021916908360ff16021790555060808201518160000160046101000a81548160ff021916908360ff16021790555060a08201518160000160056101000a81548160ff021916908360ff16021790555060c08201518160010190601a6127d6929190613880565b50505060208201518160020160008201518160000160006101000a81548160ff0219169083600481111561280d5761280c614bb0565b5b021790555060208201518160000160016101000a81548160ff021916908360ff16021790555060408201518160000160026101000a81548160ff021916908360ff16021790555060608201518160000160036101000a81548160ff021916908360ff16021790555060808201518160000160046101000a81548160ff021916908360ff16021790555060a08201518160000160056101000a81548160ff021916908360ff16021790555060c08201518160010190601a6128ce929190613880565b50505060408201518160040160008201518160000160006101000a81548160ff0219169083600481111561290557612904614bb0565b5b021790555060208201518160000160016101000a81548160ff021916908360ff16021790555060408201518160000160026101000a81548160ff021916908360ff16021790555060608201518160000160036101000a81548160ff021916908360ff16021790555060808201518160000160046101000a81548160ff021916908360ff16021790555060a08201518160000160056101000a81548160ff021916908360ff16021790555060c08201518160010190601a6129c6929190613880565b50505060608201518160060160008201518160000160006101000a81548160ff021916908360048111156129fd576129fc614bb0565b5b021790555060208201518160000160016101000a81548160ff021916908360ff16021790555060408201518160000160026101000a81548160ff021916908360ff16021790555060608201518160000160036101000a81548160ff021916908360ff16021790555060808201518160000160046101000a81548160ff021916908360ff16021790555060a08201518160000160056101000a81548160ff021916908360ff16021790555060c08201518160010190601a612abe929190613880565b50505060808201518160080160008201518160000160006101000a81548160ff02191690836004811115612af557612af4614bb0565b5b021790555060208201518160000160016101000a81548160ff021916908360ff16021790555060408201518160000160026101000a81548160ff021916908360ff16021790555060608201518160000160036101000a81548160ff021916908360ff16021790555060808201518160000160046101000a81548160ff021916908360ff16021790555060a08201518160000160056101000a81548160ff021916908360ff16021790555060c08201518160010190601a612bb6929190613880565b505050905050426005600083815260200190815260200160002081905550612bde8484611ca0565b600960008381526020019081526020016000208190555060026000815480929190612c0890614a28565b9190505550807fe66fb0bca0f9d6a395d3eaf5f39c6ac87dd34aff4e3f2f9a9b33a46f155896278585604051612c3f929190614453565b60405180910390a250505050565b612c55611d36565b60018060146101000a81548160ff0219169083151502179055507f62e78cea01bee320cd4e420270b5ea74000d11b0c9f74754ebdbfc544b05a258612c98612eec565b604051612ca59190614438565b60405180910390a1565b6000612cbe8360000183612f7c565b60001c905092915050565b6000612cdb836000018360001b612fa7565b905092915050565b3373ffffffffffffffffffffffffffffffffffffffff168173ffffffffffffffffffffffffffffffffffffffff161415612d52576040517f08c379a0000000000000000000000000000000000000000000000000000000008152600401612d49906145c3565b60405180910390fd5b80600160006101000a81548173ffffffffffffffffffffffffffffffffffffffff021916908373ffffffffffffffffffffffffffffffffffffffff1602179055508073ffffffffffffffffffffffffffffffffffffffff1660008054906101000a900473ffffffffffffffffffffffffffffffffffffffff1673ffffffffffffffffffffffffffffffffffffffff167fed8889f560326eb138920d842192f0eb3dd22b4f139c87a2c57538e05bae127860405160405180910390a350565b6000612e1c8383612e80565b612e75578260000182908060018154018082558091505060019003906000526020600020016000909190919091505582600001805490508360010160008481526020019081526020016000208190555060019050612e7a565b600090505b92915050565b600080836001016000848152602001908152602001600020541415905092915050565b612eab6113d7565b612eea576040517f08c379a0000000000000000000000000000000000000000000000000000000008152600401612ee190614543565b60405180910390fd5b565b600033905090565b600080612f00836130bb565b9050612f14846060015182602001516132cc565b8015612f2e5750612f2d846040015182604001516132cc565b5b8015612f485750612f47846020015182606001516132cc565b5b8015612f625750612f61846000015182608001516132cc565b5b91505092915050565b600081600001805490509050919050565b6000826000018281548110612f9457612f93614c3d565b5b9060005260206000200154905092915050565b600080836001016000848152602001908152602001600020549050600081146130af576000600182612fd991906148b5565b9050600060018660000180549050612ff191906148b5565b905081811461306057600086600001828154811061301257613011614c3d565b5b906000526020600020015490508087600001848154811061303657613035614c3d565b5b90600052602060002001819055508387600101600083815260200190815260200160002081905550505b8560000180548061307457613073614c0e565b5b6001900381819060005260206000200160009055905585600101600086815260200190815260200160002060009055600193505050506130b5565b60009150505b92915050565b6130c3613961565b600080806130d0856134c0565b846000019061ffff16908161ffff16815250506130f26107b261ffff166135d7565b613103856000015161ffff166135d7565b61310d91906148b5565b9150816301e2850061311f9190614827565b8361312a91906147a0565b9250816107b2856000015161313f9190614881565b61ffff1661314d91906148b5565b6301e1338061315c9190614827565b8361316791906147a0565b92506000600191505b600c8260ff16116131e75761318982866000015161362b565b60ff166201518061319a9190614827565b90508584826131a991906147a0565b11156131c65781856020019060ff16908160ff16815250506131e7565b80846131d291906147a0565b935081806131df90614a71565b925050613170565b600191505b6131fe8560200151866000015161362b565b60ff168260ff161161325b5785846201518061321a91906147a0565b11156132375781856040019060ff16908160ff168152505061325b565b620151808461324691906147a0565b9350818061325390614a71565b9250506131ec565b613264866136f7565b856060019060ff16908160ff168152505061327e86613724565b856080019060ff16908160ff168152505061329886613745565b8560a0019060ff16908160ff16815250506132b28661375b565b8560c0019060ff16908160ff168152505050505050919050565b60008060048111156132e1576132e0614bb0565b5b836000015160048111156132f8576132f7614bb0565b5b141561330757600190506134ba565b6002600481111561331b5761331a614bb0565b5b8360000151600481111561333257613331614bb0565b5b141561335557600083604001518361334a9190614b21565b60ff161490506134ba565b6001600481111561336957613368614bb0565b5b836000015160048111156133805761337f614bb0565b5b141561339a57826020015160ff168260ff161490506134ba565b600360048111156133ae576133ad614bb0565b5b836000015160048111156133c5576133c4614bb0565b5b14156133f657826060015160ff168260ff16101580156133ef5750826080015160ff168260ff1611155b90506134ba565b60048081111561340957613408614bb0565b5b836000015160048111156134205761341f614bb0565b5b14156134885760005b8360a0015160ff1681101561347e578360c0015181601a811061344f5761344e614c3d565b5b602002015160ff168360ff16141561346b5760019150506134ba565b808061347690614a28565b915050613429565b50600090506134ba565b6040517f7d8d432900000000000000000000000000000000000000000000000000000000815260040160405180910390fd5b92915050565b600080600090506000806301e13380856134da91906147f6565b6107b261ffff166134eb91906147a0565b91506134fc6107b261ffff166135d7565b6135098361ffff166135d7565b61351391906148b5565b9050806301e285006135259190614827565b8361353091906147a0565b9250806107b2836135419190614881565b61ffff1661354f91906148b5565b6301e1338061355e9190614827565b8361356991906147a0565b92505b848311156135cc576135896001836135849190614881565b61378b565b156135a5576301e285008361359e91906148b5565b92506135b8565b6301e13380836135b591906148b5565b92505b6001826135c59190614881565b915061356c565b819350505050919050565b60006001826135e691906148b5565b9150610190826135f691906147f6565b60648361360391906147f6565b60048461361091906147f6565b61361a91906148b5565b61362491906147a0565b9050919050565b600060018360ff161480613642575060038360ff16145b80613650575060058360ff16145b8061365e575060078360ff16145b8061366c575060088360ff16145b8061367a5750600a8360ff16145b806136885750600c8360ff16145b1561369657601f90506136f1565b60048360ff1614806136ab575060068360ff16145b806136b9575060098360ff16145b806136c75750600b8360ff16145b156136d557601e90506136f1565b6136de8261378b565b156136ec57601d90506136f1565b601c90505b92915050565b60006018603c808461370991906147f6565b61371391906147f6565b61371d9190614af0565b9050919050565b6000603c808361373491906147f6565b61373e9190614af0565b9050919050565b6000603c826137549190614af0565b9050919050565b600060076004620151808461377091906147f6565b61377a91906147a0565b6137849190614af0565b9050919050565b60008060048361379b9190614abf565b61ffff16146137ad57600090506137f5565b60006064836137bc9190614abf565b61ffff16146137ce57600190506137f5565b6000610190836137de9190614abf565b61ffff16146137f057600090506137f5565b600190505b919050565b828054613806906149c5565b90600052602060002090601f016020900481019282613828576000855561386f565b82601f1061384157805160ff191683800117855561386f565b8280016001018555821561386f579182015b8281111561386e578251825591602001919060010190613853565b5b50905061387c91906139b4565b5090565b82601a601f016020900481019282156139095791602002820160005b838211156138da57835183826101000a81548160ff021916908360ff160217905550926020019260010160208160000104928301926001030261389c565b80156139075782816101000a81549060ff02191690556001016020816000010492830192600103026138da565b505b50905061391691906139b4565b5090565b5060009055565b50805461392d906149c5565b6000825580601f1061393f575061395e565b601f01602090049060005260206000209081019061395d91906139b4565b5b50565b6040518060e00160405280600061ffff168152602001600060ff168152602001600060ff168152602001600060ff168152602001600060ff168152602001600060ff168152602001600060ff1681525090565b5b808211156139cd5760008160009055506001016139b5565b5090565b60006139e46139df8461466f565b61464a565b905080828560208602820111156139fe576139fd614caa565b5b60005b85811015613a2e5781613a148882613d48565b845260208401935060208301925050600181019050613a01565b5050509392505050565b6000613a4b613a4684614695565b61464a565b905082815260208101848484011115613a6757613a66614caf565b5b613a72848285614983565b509392505050565b6000613a8d613a88846146c6565b61464a565b905082815260208101848484011115613aa957613aa8614caf565b5b613ab4848285614992565b509392505050565b600081359050613acb81614dbd565b92915050565b600081359050613ae081614dd4565b92915050565b600082601f830112613afb57613afa614ca0565b5b601a613b088482856139d1565b91505092915050565b60008083601f840112613b2757613b26614ca0565b5b8235905067ffffffffffffffff811115613b4457613b43614c9b565b5b602083019150836001820283011115613b6057613b5f614caa565b5b9250929050565b600082601f830112613b7c57613b7b614ca0565b5b8135613b8c848260208601613a38565b91505092915050565b600081519050613ba481614deb565b92915050565b600082601f830112613bbf57613bbe614ca0565b5b8151613bcf848260208601613a7a565b91505092915050565b60006104008284031215613bef57613bee614ca5565b5b613bf960e061464a565b90506000613c0984828501613b95565b6000830152506020613c1d84828501613d48565b6020830152506040613c3184828501613d48565b6040830152506060613c4584828501613d48565b6060830152506080613c5984828501613d48565b60808301525060a0613c6d84828501613d48565b60a08301525060c0613c8184828501613ae6565b60c08301525092915050565b60006114008284031215613ca457613ca3614ca5565b5b613cae60a061464a565b90506000613cbe84828501613bd8565b600083015250610400613cd384828501613bd8565b602083015250610800613ce884828501613bd8565b604083015250610c00613cfd84828501613bd8565b606083015250611000613d1284828501613bd8565b60808301525092915050565b600081359050613d2d81614dfb565b92915050565b600081519050613d4281614dfb565b92915050565b600081519050613d5781614e12565b92915050565b600060208284031215613d7357613d72614cb9565b5b6000613d8184828501613abc565b91505092915050565b600080600060608486031215613da357613da2614cb9565b5b6000613db186828701613abc565b935050602084013567ffffffffffffffff811115613dd257613dd1614cb4565b5b613dde86828701613b67565b925050604084013567ffffffffffffffff811115613dff57613dfe614cb4565b5b613e0b86828701613b67565b9150509250925092565b60008060208385031215613e2c57613e2b614cb9565b5b600083013567ffffffffffffffff811115613e4a57613e49614cb4565b5b613e5685828601613b11565b92509250509250929050565b600060208284031215613e7857613e77614cb9565b5b600082015167ffffffffffffffff811115613e9657613e95614cb4565b5b613ea284828501613baa565b91505092915050565b60006114008284031215613ec257613ec1614cb9565b5b6000613ed084828501613c8d565b91505092915050565b600060208284031215613eef57613eee614cb9565b5b6000613efd84828501613d1e565b91505092915050565b600060208284031215613f1c57613f1b614cb9565b5b6000613f2a84828501613d33565b91505092915050565b60008060008060808587031215613f4d57613f4c614cb9565b5b6000613f5b87828801613d1e565b9450506020613f6c87828801613abc565b935050604085013567ffffffffffffffff811115613f8d57613f8c614cb4565b5b613f9987828801613b67565b925050606085013567ffffffffffffffff811115613fba57613fb9614cb4565b5b613fc687828801613b67565b91505092959194509250565b60008060008060808587031215613fec57613feb614cb9565b5b6000613ffa87828801613d1e565b945050602061400b87828801613d1e565b935050604061401c87828801613ad1565b925050606085013567ffffffffffffffff81111561403d5761403c614cb4565b5b61404987828801613b67565b91505092959194509250565b600061406183836143cc565b60208301905092915050565b600061407983836143ea565b60208301905092915050565b61408e816148e9565b82525050565b6140a56140a0826148e9565b614a9b565b82525050565b60006140b682614711565b6140c08185614757565b93506140cb836146f7565b8060005b838110156140fc5781516140e38882614055565b97506140ee8361473d565b9250506001810190506140cf565b5085935050505092915050565b6141128161471c565b61411c8184614768565b925061412782614707565b8060005b8381101561415857815161413f878261406d565b965061414a8361474a565b92505060018101905061412b565b505050505050565b6141698161490d565b82525050565b600061417a82614727565b6141848185614773565b9350614194818560208601614992565b61419d81614cbe565b840191505092915050565b60006141b382614727565b6141bd8185614784565b93506141cd818560208601614992565b80840191505092915050565b6141e281614971565b82525050565b60006141f382614732565b6141fd818561478f565b935061420d818560208601614992565b61421681614cbe565b840191505092915050565b600061422e60148361478f565b915061423982614cdc565b602082019050919050565b600061425160168361478f565b915061425c82614d05565b602082019050919050565b600061427460168361478f565b915061427f82614d2e565b602082019050919050565b600061429760108361478f565b91506142a282614d57565b602082019050919050565b60006142ba60178361478f565b91506142c582614d80565b602082019050919050565b610400820160008201516142e760008501826141d9565b5060208201516142fa60208501826143ea565b50604082015161430d60408501826143ea565b50606082015161432060608501826143ea565b50608082015161433360808501826143ea565b5060a082015161434660a08501826143ea565b5060c082015161435960c0850182614109565b50505050565b6114008201600082015161437660008501826142d0565b50602082015161438a6104008501826142d0565b50604082015161439e6108008501826142d0565b5060608201516143b2610c008501826142d0565b5060808201516143c66110008501826142d0565b50505050565b6143d58161495a565b82525050565b6143e48161495a565b82525050565b6143f381614964565b82525050565b60006144058285614094565b60148201915061441582846141a8565b91508190509392505050565b600061442d82846141a8565b915081905092915050565b600060208201905061444d6000830184614085565b92915050565b60006040820190506144686000830185614085565b818103602083015261447a818461416f565b90509392505050565b60006080820190506144986000830187614085565b81810360208301526144aa818661416f565b905081810360408301526144be81856141e8565b90506144cd60608301846143db565b95945050505050565b600060208201905081810360008301526144f081846140ab565b905092915050565b600060208201905061450d6000830184614160565b92915050565b60006040820190506145286000830185614160565b818103602083015261453a818461416f565b90509392505050565b6000602082019050818103600083015261455c81614221565b9050919050565b6000602082019050818103600083015261457c81614244565b9050919050565b6000602082019050818103600083015261459c81614267565b9050919050565b600060208201905081810360008301526145bc8161428a565b9050919050565b600060208201905081810360008301526145dc816142ad565b9050919050565b6000611400820190506145f9600083018461435f565b92915050565b600060208201905061461460008301846143db565b92915050565b600060408201905061462f60008301856143db565b818103602083015261464181846141e8565b90509392505050565b6000614654614665565b905061466082826149f7565b919050565b6000604051905090565b600067ffffffffffffffff82111561468a57614689614c6c565b5b602082029050919050565b600067ffffffffffffffff8211156146b0576146af614c6c565b5b6146b982614cbe565b9050602081019050919050565b600067ffffffffffffffff8211156146e1576146e0614c6c565b5b6146ea82614cbe565b9050602081019050919050565b6000819050602082019050919050565b6000819050919050565b600081519050919050565b6000601a9050919050565b600081519050919050565b600081519050919050565b6000602082019050919050565b6000602082019050919050565b600082825260208201905092915050565b600081905092915050565b600082825260208201905092915050565b600081905092915050565b600082825260208201905092915050565b60006147ab8261495a565b91506147b68361495a565b9250827fffffffffffffffffffffffffffffffffffffffffffffffffffffffffffffffff038211156147eb576147ea614b52565b5b828201905092915050565b60006148018261495a565b915061480c8361495a565b92508261481c5761481b614b81565b5b828204905092915050565b60006148328261495a565b915061483d8361495a565b9250817fffffffffffffffffffffffffffffffffffffffffffffffffffffffffffffffff048311821515161561487657614875614b52565b5b828202905092915050565b600061488c8261492c565b91506148978361492c565b9250828210156148aa576148a9614b52565b5b828203905092915050565b60006148c08261495a565b91506148cb8361495a565b9250828210156148de576148dd614b52565b5b828203905092915050565b60006148f48261493a565b9050919050565b60006149068261493a565b9050919050565b60008115159050919050565b600081905061492782614da9565b919050565b600061ffff82169050919050565b600073ffffffffffffffffffffffffffffffffffffffff82169050919050565b6000819050919050565b600060ff82169050919050565b600061497c82614919565b9050919050565b82818337600083830152505050565b60005b838110156149b0578082015181840152602081019050614995565b838111156149bf576000848401525b50505050565b600060028204905060018216806149dd57607f821691505b602082108114156149f1576149f0614bdf565b5b50919050565b614a0082614cbe565b810181811067ffffffffffffffff82111715614a1f57614a1e614c6c565b5b80604052505050565b6000614a338261495a565b91507fffffffffffffffffffffffffffffffffffffffffffffffffffffffffffffffff821415614a6657614a65614b52565b5b600182019050919050565b6000614a7c82614964565b915060ff821415614a9057614a8f614b52565b5b600182019050919050565b6000614aa682614aad565b9050919050565b6000614ab882614ccf565b9050919050565b6000614aca8261492c565b9150614ad58361492c565b925082614ae557614ae4614b81565b5b828206905092915050565b6000614afb8261495a565b9150614b068361495a565b925082614b1657614b15614b81565b5b828206905092915050565b6000614b2c82614964565b9150614b3783614964565b925082614b4757614b46614b81565b5b828206905092915050565b7f4e487b7100000000000000000000000000000000000000000000000000000000600052601160045260246000fd5b7f4e487b7100000000000000000000000000000000000000000000000000000000600052601260045260246000fd5b7f4e487b7100000000000000000000000000000000000000000000000000000000600052602160045260246000fd5b7f4e487b7100000000000000000000000000000000000000000000000000000000600052602260045260246000fd5b7f4e487b7100000000000000000000000000000000000000000000000000000000600052603160045260246000fd5b7f4e487b7100000000000000000000000000000000000000000000000000000000600052603260045260246000fd5b7f4e487b7100000000000000000000000000000000000000000000000000000000600052604160045260246000fd5b600080fd5b600080fd5b600080fd5b600080fd5b600080fd5b600080fd5b600080fd5b6000601f19601f8301169050919050565b60008160601b9050919050565b7f5061757361626c653a206e6f7420706175736564000000000000000000000000600082015250565b7f4d7573742062652070726f706f736564206f776e657200000000000000000000600082015250565b7f4f6e6c792063616c6c61626c65206279206f776e657200000000000000000000600082015250565b7f5061757361626c653a2070617573656400000000000000000000000000000000600082015250565b7f43616e6e6f74207472616e7366657220746f2073656c66000000000000000000600082015250565b60058110614dba57614db9614bb0565b5b50565b614dc6816148e9565b8114614dd157600080fd5b50565b614ddd816148fb565b8114614de857600080fd5b50565b60058110614df857600080fd5b50565b614e048161495a565b8114614e0f57600080fd5b50565b614e1b81614964565b8114614e2657600080fd5b5056fea2646970667358221220acb2c4d9c54186185064c071306db6d5ab84e189dfb660144f7cf108f945b32f64736f6c63430008060033a264697066735822122056959ae0cbcd2c93e2ea7447d481174fa8aab4dca254d56761f440afcc32f72764736f6c63430008060033608060405234801561001057600080fd5b50611dd9806100206000396000f3fe608060405234801561001057600080fd5b506004361061002b5760003560e01c80636e04ff0d14610030575b600080fd5b61004a600480360381019061004591906116e4565b610061565b604051610058929190611817565b60405180910390f35b600060606000610071600361011d565b90506000811415610098576000604051806020016040528060008152509250925050610116565b600081436100a69190611c2c565b9050600060606100b68385610132565b809250819350505081156100d35781819550955050505050610116565b6100de600084610132565b809250819350505081156100fb5781819550955050505050610116565b60006040518060200160405280600081525095509550505050505b9250929050565b600061012b826000016108ae565b9050919050565b6000606060008060008690505b858110156108a35761015b8160036108bf90919063ffffffff16565b92506107fa600660008581526020019081526020016000206040518060a0016040529081600082016040518060e00160405290816000820160009054906101000a900460ff1660048111156101b3576101b2611cec565b5b60048111156101c5576101c4611cec565b5b81526020016000820160019054906101000a900460ff1660ff1660ff1681526020016000820160029054906101000a900460ff1660ff1660ff1681526020016000820160039054906101000a900460ff1660ff1660ff1681526020016000820160049054906101000a900460ff1660ff1660ff1681526020016000820160059054906101000a900460ff1660ff1660ff16815260200160018201601a806020026040519081016040528092919082601a80156102bc576020028201916000905b82829054906101000a900460ff1660ff16815260200190600101906020826000010492830192600103820291508084116102855790505b5050505050815250508152602001600282016040518060e00160405290816000820160009054906101000a900460ff1660048111156102fe576102fd611cec565b5b60048111156103105761030f611cec565b5b81526020016000820160019054906101000a900460ff1660ff1660ff1681526020016000820160029054906101000a900460ff1660ff1660ff1681526020016000820160039054906101000a900460ff1660ff1660ff1681526020016000820160049054906101000a900460ff1660ff1660ff1681526020016000820160059054906101000a900460ff1660ff1660ff16815260200160018201601a806020026040519081016040528092919082601a8015610407576020028201916000905b82829054906101000a900460ff1660ff16815260200190600101906020826000010492830192600103820291508084116103d05790505b5050505050815250508152602001600482016040518060e00160405290816000820160009054906101000a900460ff16600481111561044957610448611cec565b5b600481111561045b5761045a611cec565b5b81526020016000820160019054906101000a900460ff1660ff1660ff1681526020016000820160029054906101000a900460ff1660ff1660ff1681526020016000820160039054906101000a900460ff1660ff1660ff1681526020016000820160049054906101000a900460ff1660ff1660ff1681526020016000820160059054906101000a900460ff1660ff1660ff16815260200160018201601a806020026040519081016040528092919082601a8015610552576020028201916000905b82829054906101000a900460ff1660ff168152602001906001019060208260000104928301926001038202915080841161051b5790505b5050505050815250508152602001600682016040518060e00160405290816000820160009054906101000a900460ff16600481111561059457610593611cec565b5b60048111156105a6576105a5611cec565b5b81526020016000820160019054906101000a900460ff1660ff1660ff1681526020016000820160029054906101000a900460ff1660ff1660ff1681526020016000820160039054906101000a900460ff1660ff1660ff1681526020016000820160049054906101000a900460ff1660ff1660ff1681526020016000820160059054906101000a900460ff1660ff1660ff16815260200160018201601a806020026040519081016040528092919082601a801561069d576020028201916000905b82829054906101000a900460ff1660ff16815260200190600101906020826000010492830192600103820291508084116106665790505b5050505050815250508152602001600882016040518060e00160405290816000820160009054906101000a900460ff1660048111156106df576106de611cec565b5b60048111156106f1576106f0611cec565b5b81526020016000820160019054906101000a900460ff1660ff1660ff1681526020016000820160029054906101000a900460ff1660ff1660ff1681526020016000820160039054906101000a900460ff1660ff1660ff1681526020016000820160049054906101000a900460ff1660ff1660ff1681526020016000820160059054906101000a900460ff1660ff1660ff16815260200160018201601a806020026040519081016040528092919082601a80156107e8576020028201916000905b82829054906101000a900460ff1660ff16815260200190600101906020826000010492830192600103820291508084116107b15790505b505050505081525050815250506108d9565b9150600560008481526020019081526020016000205482111561089057600183836007600087815260200190815260200160002060009054906101000a900473ffffffffffffffffffffffffffffffffffffffff16600860008881526020019081526020016000206040516020016108759493929190611847565b604051602081830303815290604052945094505050506108a7565b808061089b90611b88565b91505061013f565b5050505b9250929050565b600081600001805490509050919050565b60006108ce8360000183610ae0565b60001c905092915050565b6000806108e542610b0b565b905060006108f242610c22565b905060006108ff42610c38565b9050600061090c42610c4e565b9050600061091942610c7b565b90506000805b600115610ad3575b60008660ff161115610abc57610941896060015187610c9c565b610956576001905060179350603b9250610aa9565b8015610969576109668688610e90565b94505b5b60008560ff161115610aa457610984896040015186610c9c565b6109955760179350603b9250610a91565b6109a86109a3888888610f5c565b610f77565b91506109b8896080015183610c9c565b6109c95760179350603b9250610a91565b5b60008460ff1610610a8c576109e3896020015185610c9c565b610a0157603b925060008460ff1614156109fc57610a8c565b610a79565b5b60008360ff1610610a6357610a1b896000015184610c9c565b610a355760008360ff161415610a3057610a63565b610a50565b610a428787878787610fa7565b975050505050505050610adb565b8280610a5b90611b01565b935050610a02565b603b925060008460ff161415610a7857610a8c565b5b8380610a8490611b01565b9450506109ca565b601793505b8480610a9c90611b01565b95505061096a565b600190505b8580610ab490611b01565b965050610927565b600c95508680610acb90611ad7565b97505061091f565b505050505050505b919050565b6000826000018281548110610af857610af7611d4a565b5b9060005260206000200154905092915050565b600080600090506000806301e1338085610b25919061191a565b6107b261ffff16610b3691906118c4565b9150610b476107b261ffff16610fc3565b610b548361ffff16610fc3565b610b5e91906119d9565b9050806301e28500610b70919061194b565b83610b7b91906118c4565b9250806107b283610b8c91906119a5565b61ffff16610b9a91906119d9565b6301e13380610ba9919061194b565b83610bb491906118c4565b92505b84831115610c1757610bd4600183610bcf91906119a5565b611017565b15610bf0576301e2850083610be991906119d9565b9250610c03565b6301e1338083610c0091906119d9565b92505b600182610c1091906119a5565b9150610bb7565b819350505050919050565b6000610c2d82611086565b602001519050919050565b6000610c4382611086565b604001519050919050565b60006018603c8084610c60919061191a565b610c6a919061191a565b610c749190611c2c565b9050919050565b6000603c8083610c8b919061191a565b610c959190611c2c565b9050919050565b6000806004811115610cb157610cb0611cec565b5b83600001516004811115610cc857610cc7611cec565b5b1415610cd75760019050610e8a565b60026004811115610ceb57610cea611cec565b5b83600001516004811115610d0257610d01611cec565b5b1415610d25576000836040015183610d1a9190611c5d565b60ff16149050610e8a565b60016004811115610d3957610d38611cec565b5b83600001516004811115610d5057610d4f611cec565b5b1415610d6a57826020015160ff168260ff16149050610e8a565b60036004811115610d7e57610d7d611cec565b5b83600001516004811115610d9557610d94611cec565b5b1415610dc657826060015160ff168260ff1610158015610dbf5750826080015160ff168260ff1611155b9050610e8a565b600480811115610dd957610dd8611cec565b5b83600001516004811115610df057610def611cec565b5b1415610e585760005b8360a0015160ff16811015610e4e578360c0015181601a8110610e1f57610e1e611d4a565b5b602002015160ff168360ff161415610e3b576001915050610e8a565b8080610e4690611b88565b915050610df9565b5060009050610e8a565b6040517f7d8d432900000000000000000000000000000000000000000000000000000000815260040160405180910390fd5b92915050565b600060018360ff161480610ea7575060038360ff16145b80610eb5575060058360ff16145b80610ec3575060078360ff16145b80610ed1575060088360ff16145b80610edf5750600a8360ff16145b80610eed5750600c8360ff16145b15610efb57601f9050610f56565b60048360ff161480610f10575060068360ff16145b80610f1e575060098360ff16145b80610f2c5750600b8360ff16145b15610f3a57601e9050610f56565b610f4382611017565b15610f5157601d9050610f56565b601c90505b92915050565b6000610f6e8484846000806000611297565b90509392505050565b6000600760046201518084610f8c919061191a565b610f9691906118c4565b610fa09190611c2c565b9050919050565b6000610fb886868686866000611297565b905095945050505050565b6000600182610fd291906119d9565b915061019082610fe2919061191a565b606483610fef919061191a565b600484610ffc919061191a565b61100691906119d9565b61101091906118c4565b9050919050565b6000806004836110279190611bfb565b61ffff16146110395760009050611081565b60006064836110489190611bfb565b61ffff161461105a5760019050611081565b60006101908361106a9190611bfb565b61ffff161461107c5760009050611081565b600190505b919050565b61108e611618565b6000808061109b85610b0b565b846000019061ffff16908161ffff16815250506110bd6107b261ffff16610fc3565b6110ce856000015161ffff16610fc3565b6110d891906119d9565b9150816301e285006110ea919061194b565b836110f591906118c4565b9250816107b2856000015161110a91906119a5565b61ffff1661111891906119d9565b6301e13380611127919061194b565b8361113291906118c4565b92506000600191505b600c8260ff16116111b257611154828660000151610e90565b60ff1662015180611165919061194b565b905085848261117491906118c4565b11156111915781856020019060ff16908160ff16815250506111b2565b808461119d91906118c4565b935081806111aa90611bd1565b92505061113b565b600191505b6111c985602001518660000151610e90565b60ff168260ff1611611226578584620151806111e591906118c4565b11156112025781856040019060ff16908160ff1681525050611226565b620151808461121191906118c4565b9350818061121e90611bd1565b9250506111b7565b61122f86610c4e565b856060019060ff16908160ff168152505061124986610c7b565b856080019060ff16908160ff168152505061126386611602565b8560a0019060ff16908160ff168152505061127d86610f77565b8560c0019060ff16908160ff168152505050505050919050565b6000806107b290505b8761ffff168161ffff1610156112fb576112b981611017565b156112d5576301e28500826112ce91906118c4565b91506112e8565b6301e13380826112e591906118c4565b91505b80806112f390611b5d565b9150506112a0565b61130361166b565b601f816000600c811061131957611318611d4a565b5b602002019060ff16908160ff168152505061133389611017565b1561136457601d816001600c811061134e5761134d611d4a565b5b602002019060ff16908160ff168152505061138c565b601c816001600c811061137a57611379611d4a565b5b602002019060ff16908160ff16815250505b601f816002600c81106113a2576113a1611d4a565b5b602002019060ff16908160ff1681525050601e816003600c81106113c9576113c8611d4a565b5b602002019060ff16908160ff1681525050601f816004600c81106113f0576113ef611d4a565b5b602002019060ff16908160ff1681525050601e816005600c811061141757611416611d4a565b5b602002019060ff16908160ff1681525050601f816006600c811061143e5761143d611d4a565b5b602002019060ff16908160ff1681525050601f816007600c811061146557611464611d4a565b5b602002019060ff16908160ff1681525050601e816008600c811061148c5761148b611d4a565b5b602002019060ff16908160ff1681525050601f816009600c81106114b3576114b2611d4a565b5b602002019060ff16908160ff1681525050601e81600a600c81106114da576114d9611d4a565b5b602002019060ff16908160ff1681525050601f81600b600c811061150157611500611d4a565b5b602002019060ff16908160ff1681525050600191505b8760ff168261ffff16101561157f578060018361153491906119a5565b61ffff16600c811061154957611548611d4a565b5b602002015160ff166201518061155f919061194b565b8361156a91906118c4565b9250818061157790611b5d565b925050611517565b60018761158c9190611a0d565b60ff166201518061159d919061194b565b836115a891906118c4565b92508560ff16610e106115bb919061194b565b836115c691906118c4565b92508460ff16603c6115d8919061194b565b836115e391906118c4565b92508360ff16836115f491906118c4565b925050509695505050505050565b6000603c826116119190611c2c565b9050919050565b6040518060e00160405280600061ffff168152602001600060ff168152602001600060ff168152602001600060ff168152602001600060ff168152602001600060ff168152602001600060ff1681525090565b604051806101800160405280600c90602082028036833780820191505090505090565b60008083601f8401126116a4576116a3611d7e565b5b8235905067ffffffffffffffff8111156116c1576116c0611d79565b5b6020830191508360018202830111156116dd576116dc611d83565b5b9250929050565b600080602083850312156116fb576116fa611d8d565b5b600083013567ffffffffffffffff81111561171957611718611d88565b5b6117258582860161168e565b92509250509250929050565b61173a81611a41565b82525050565b61174981611a53565b82525050565b600061175a826118a8565b61176481856118b3565b9350611774818560208601611aa4565b61177d81611d92565b840191505092915050565b6000815461179581611b2b565b61179f81866118b3565b945060018216600081146117ba57600181146117cc576117ff565b60ff19831686526020860193506117ff565b6117d585611893565b60005b838110156117f7578154818901526001820191506020810190506117d8565b808801955050505b50505092915050565b61181181611a8d565b82525050565b600060408201905061182c6000830185611740565b818103602083015261183e818461174f565b90509392505050565b600060808201905061185c6000830187611808565b6118696020830186611808565b6118766040830185611731565b81810360608301526118888184611788565b905095945050505050565b60008190508160005260206000209050919050565b600081519050919050565b600082825260208201905092915050565b60006118cf82611a8d565b91506118da83611a8d565b9250827fffffffffffffffffffffffffffffffffffffffffffffffffffffffffffffffff0382111561190f5761190e611c8e565b5b828201905092915050565b600061192582611a8d565b915061193083611a8d565b9250826119405761193f611cbd565b5b828204905092915050565b600061195682611a8d565b915061196183611a8d565b9250817fffffffffffffffffffffffffffffffffffffffffffffffffffffffffffffffff048311821515161561199a57611999611c8e565b5b828202905092915050565b60006119b082611a5f565b91506119bb83611a5f565b9250828210156119ce576119cd611c8e565b5b828203905092915050565b60006119e482611a8d565b91506119ef83611a8d565b925082821015611a0257611a01611c8e565b5b828203905092915050565b6000611a1882611a97565b9150611a2383611a97565b925082821015611a3657611a35611c8e565b5b828203905092915050565b6000611a4c82611a6d565b9050919050565b60008115159050919050565b600061ffff82169050919050565b600073ffffffffffffffffffffffffffffffffffffffff82169050919050565b6000819050919050565b600060ff82169050919050565b60005b83811015611ac2578082015181840152602081019050611aa7565b83811115611ad1576000848401525b50505050565b6000611ae282611a5f565b91506000821415611af657611af5611c8e565b5b600182039050919050565b6000611b0c82611a97565b91506000821415611b2057611b1f611c8e565b5b600182039050919050565b60006002820490506001821680611b4357607f821691505b60208210811415611b5757611b56611d1b565b5b50919050565b6000611b6882611a5f565b915061ffff821415611b7d57611b7c611c8e565b5b600182019050919050565b6000611b9382611a8d565b91507fffffffffffffffffffffffffffffffffffffffffffffffffffffffffffffffff821415611bc657611bc5611c8e565b5b600182019050919050565b6000611bdc82611a97565b915060ff821415611bf057611bef611c8e565b5b600182019050919050565b6000611c0682611a5f565b9150611c1183611a5f565b925082611c2157611c20611cbd565b5b828206905092915050565b6000611c3782611a8d565b9150611c4283611a8d565b925082611c5257611c51611cbd565b5b828206905092915050565b6000611c6882611a97565b9150611c7383611a97565b925082611c8357611c82611cbd565b5b828206905092915050565b7f4e487b7100000000000000000000000000000000000000000000000000000000600052601160045260246000fd5b7f4e487b7100000000000000000000000000000000000000000000000000000000600052601260045260246000fd5b7f4e487b7100000000000000000000000000000000000000000000000000000000600052602160045260246000fd5b7f4e487b7100000000000000000000000000000000000000000000000000000000600052602260045260246000fd5b7f4e487b7100000000000000000000000000000000000000000000000000000000600052603260045260246000fd5b600080fd5b600080fd5b600080fd5b600080fd5b600080fd5b6000601f19601f830116905091905056fea2646970667358221220cdb41bd46cbe3d2ace600c5035c7be06bccddf9aef8e38e51bfafa0b597c228564736f6c63430008060033",
  "linkReferences": {
    "@chainlink/contracts/src/v0.8/libraries/external/Cron.sol": {
      "Cron": [
        {
          "length": 20,
          "start": 1495
        },
        {
          "length": 20,
          "start": 2195
        },
        {
          "length": 20,
          "start": 16780
        },
        {
          "length": 20,
          "start": 16920
        }
      ]
    }
  },
  "deployedLinkReferences": {
    "@chainlink/contracts/src/v0.8/libraries/external/Cron.sol": {
      "Cron": [
        {
          "length": 20,
          "start": 511
        },
        {
          "length": 20,
          "start": 1211
        },
        {
          "length": 20,
          "start": 15796
        },
        {
          "length": 20,
          "start": 15936
        }
      ]
    }
  }
}