{
  "_format": "hh-sol-artifact-1",
  "contractName": "KeeperRegistrar",
  "sourceName": "@chainlink/contracts/src/v0.8/KeeperRegistrar.sol",
  "abi": [
    {
      "inputs": [
        {
          "internalType": "address",
          "name": "LINKAddress",
          "type": "address"
        },
        {
          "internalType": "enum KeeperRegistrar.AutoApproveType",
          "name": "autoApproveConfigType",
          "type": "uint8"
        },
        {
          "internalType": "uint16",
          "name": "autoApproveMaxAllowed",
          "type": "uint16"
        },
        {
          "internalType": "address",
          "name": "keeperRegistry",
          "type": "address"
        },
        {
          "internalType": "uint96",
          "name": "minLINKJuels",
          "type": "uint96"
        }
      ],
      "stateMutability": "nonpayable",
      "type": "constructor"
    },
    {
      "inputs": [],
      "name": "AmountMismatch",
      "type": "error"
    },
    {
      "inputs": [],
      "name": "FunctionNotPermitted",
      "type": "error"
    },
    {
      "inputs": [],
      "name": "HashMismatch",
      "type": "error"
    },
    {
      "inputs": [],
      "name": "InsufficientPayment",
      "type": "error"
    },
    {
      "inputs": [],
      "name": "InvalidAdminAddress",
      "type": "error"
    },
    {
      "inputs": [],
      "name": "InvalidDataLength",
      "type": "error"
    },
    {
      "inputs": [
        {
          "internalType": "address",
          "name": "to",
          "type": "address"
        }
      ],
      "name": "LinkTransferFailed",
      "type": "error"
    },
    {
      "inputs": [],
      "name": "OnlyAdminOrOwner",
      "type": "error"
    },
    {
      "inputs": [],
      "name": "OnlyLink",
      "type": "error"
    },
    {
      "inputs": [],
      "name": "RegistrationRequestFailed",
      "type": "error"
    },
    {
      "inputs": [],
      "name": "RequestNotFound",
      "type": "error"
    },
    {
      "inputs": [],
      "name": "SenderMismatch",
      "type": "error"
    },
    {
      "anonymous": false,
      "inputs": [
        {
          "indexed": true,
          "internalType": "address",
          "name": "senderAddress",
          "type": "address"
        },
        {
          "indexed": false,
          "internalType": "bool",
          "name": "allowed",
          "type": "bool"
        }
      ],
      "name": "AutoApproveAllowedSenderSet",
      "type": "event"
    },
    {
      "anonymous": false,
      "inputs": [
        {
          "indexed": false,
          "internalType": "enum KeeperRegistrar.AutoApproveType",
          "name": "autoApproveConfigType",
          "type": "uint8"
        },
        {
          "indexed": false,
          "internalType": "uint32",
          "name": "autoApproveMaxAllowed",
          "type": "uint32"
        },
        {
          "indexed": false,
          "internalType": "address",
          "name": "keeperRegistry",
          "type": "address"
        },
        {
          "indexed": false,
          "internalType": "uint96",
          "name": "minLINKJuels",
          "type": "uint96"
        }
      ],
      "name": "ConfigChanged",
      "type": "event"
    },
    {
      "anonymous": false,
      "inputs": [
        {
          "indexed": true,
          "internalType": "address",
          "name": "from",
          "type": "address"
        },
        {
          "indexed": true,
          "internalType": "address",
          "name": "to",
          "type": "address"
        }
      ],
      "name": "OwnershipTransferRequested",
      "type": "event"
    },
    {
      "anonymous": false,
      "inputs": [
        {
          "indexed": true,
          "internalType": "address",
          "name": "from",
          "type": "address"
        },
        {
          "indexed": true,
          "internalType": "address",
          "name": "to",
          "type": "address"
        }
      ],
      "name": "OwnershipTransferred",
      "type": "event"
    },
    {
      "anonymous": false,
      "inputs": [
        {
          "indexed": true,
          "internalType": "bytes32",
          "name": "hash",
          "type": "bytes32"
        },
        {
          "indexed": false,
          "internalType": "string",
          "name": "displayName",
          "type": "string"
        },
        {
          "indexed": true,
          "internalType": "uint256",
          "name": "upkeepId",
          "type": "uint256"
        }
      ],
      "name": "RegistrationApproved",
      "type": "event"
    },
    {
      "anonymous": false,
      "inputs": [
        {
          "indexed": true,
          "internalType": "bytes32",
          "name": "hash",
          "type": "bytes32"
        }
      ],
      "name": "RegistrationRejected",
      "type": "event"
    },
    {
      "anonymous": false,
      "inputs": [
        {
          "indexed": true,
          "internalType": "bytes32",
          "name": "hash",
          "type": "bytes32"
        },
        {
          "indexed": false,
          "internalType": "string",
          "name": "name",
          "type": "string"
        },
        {
          "indexed": false,
          "internalType": "bytes",
          "name": "encryptedEmail",
          "type": "bytes"
        },
        {
          "indexed": true,
          "internalType": "address",
          "name": "upkeepContract",
          "type": "address"
        },
        {
          "indexed": false,
          "internalType": "uint32",
          "name": "gasLimit",
          "type": "uint32"
        },
        {
          "indexed": false,
          "internalType": "address",
          "name": "adminAddress",
          "type": "address"
        },
        {
          "indexed": false,
          "internalType": "bytes",
          "name": "checkData",
          "type": "bytes"
        },
        {
          "indexed": false,
          "internalType": "uint96",
          "name": "amount",
          "type": "uint96"
        },
        {
          "indexed": true,
          "internalType": "uint8",
          "name": "source",
          "type": "uint8"
        }
      ],
      "name": "RegistrationRequested",
      "type": "event"
    },
    {
      "inputs": [],
      "name": "LINK",
      "outputs": [
        {
          "internalType": "contract LinkTokenInterface",
          "name": "",
          "type": "address"
        }
      ],
      "stateMutability": "view",
      "type": "function"
    },
    {
      "inputs": [],
      "name": "acceptOwnership",
      "outputs": [],
      "stateMutability": "nonpayable",
      "type": "function"
    },
    {
      "inputs": [
        {
          "internalType": "string",
          "name": "name",
          "type": "string"
        },
        {
          "internalType": "address",
          "name": "upkeepContract",
          "type": "address"
        },
        {
          "internalType": "uint32",
          "name": "gasLimit",
          "type": "uint32"
        },
        {
          "internalType": "address",
          "name": "adminAddress",
          "type": "address"
        },
        {
          "internalType": "bytes",
          "name": "checkData",
          "type": "bytes"
        },
        {
          "internalType": "bytes32",
          "name": "hash",
          "type": "bytes32"
        }
      ],
      "name": "approve",
      "outputs": [],
      "stateMutability": "nonpayable",
      "type": "function"
    },
    {
      "inputs": [
        {
          "internalType": "bytes32",
          "name": "hash",
          "type": "bytes32"
        }
      ],
      "name": "cancel",
      "outputs": [],
      "stateMutability": "nonpayable",
      "type": "function"
    },
    {
      "inputs": [
        {
          "internalType": "address",
          "name": "senderAddress",
          "type": "address"
        }
      ],
      "name": "getAutoApproveAllowedSender",
      "outputs": [
        {
          "internalType": "bool",
          "name": "",
          "type": "bool"
        }
      ],
      "stateMutability": "view",
      "type": "function"
    },
    {
      "inputs": [
        {
          "internalType": "bytes32",
          "name": "hash",
          "type": "bytes32"
        }
      ],
      "name": "getPendingRequest",
      "outputs": [
        {
          "internalType": "address",
          "name": "",
          "type": "address"
        },
        {
          "internalType": "uint96",
          "name": "",
          "type": "uint96"
        }
      ],
      "stateMutability": "view",
      "type": "function"
    },
    {
      "inputs": [],
      "name": "getRegistrationConfig",
      "outputs": [
        {
          "internalType": "enum KeeperRegistrar.AutoApproveType",
          "name": "autoApproveConfigType",
          "type": "uint8"
        },
        {
          "internalType": "uint32",
          "name": "autoApproveMaxAllowed",
          "type": "uint32"
        },
        {
          "internalType": "uint32",
          "name": "approvedCount",
          "type": "uint32"
        },
        {
          "internalType": "address",
          "name": "keeperRegistry",
          "type": "address"
        },
        {
          "internalType": "uint256",
          "name": "minLINKJuels",
          "type": "uint256"
        }
      ],
      "stateMutability": "view",
      "type": "function"
    },
    {
      "inputs": [
        {
          "internalType": "address",
          "name": "sender",
          "type": "address"
        },
        {
          "internalType": "uint256",
          "name": "amount",
          "type": "uint256"
        },
        {
          "internalType": "bytes",
          "name": "data",
          "type": "bytes"
        }
      ],
      "name": "onTokenTransfer",
      "outputs": [],
      "stateMutability": "nonpayable",
      "type": "function"
    },
    {
      "inputs": [],
      "name": "owner",
      "outputs": [
        {
          "internalType": "address",
          "name": "",
          "type": "address"
        }
      ],
      "stateMutability": "view",
      "type": "function"
    },
    {
      "inputs": [
        {
          "internalType": "string",
          "name": "name",
          "type": "string"
        },
        {
          "internalType": "bytes",
          "name": "encryptedEmail",
          "type": "bytes"
        },
        {
          "internalType": "address",
          "name": "upkeepContract",
          "type": "address"
        },
        {
          "internalType": "uint32",
          "name": "gasLimit",
          "type": "uint32"
        },
        {
          "internalType": "address",
          "name": "adminAddress",
          "type": "address"
        },
        {
          "internalType": "bytes",
          "name": "checkData",
          "type": "bytes"
        },
        {
          "internalType": "uint96",
          "name": "amount",
          "type": "uint96"
        },
        {
          "internalType": "uint8",
          "name": "source",
          "type": "uint8"
        },
        {
          "internalType": "address",
          "name": "sender",
          "type": "address"
        }
      ],
      "name": "register",
      "outputs": [],
      "stateMutability": "nonpayable",
      "type": "function"
    },
    {
      "inputs": [
        {
          "internalType": "address",
          "name": "senderAddress",
          "type": "address"
        },
        {
          "internalType": "bool",
          "name": "allowed",
          "type": "bool"
        }
      ],
      "name": "setAutoApproveAllowedSender",
      "outputs": [],
      "stateMutability": "nonpayable",
      "type": "function"
    },
    {
      "inputs": [
        {
          "internalType": "enum KeeperRegistrar.AutoApproveType",
          "name": "autoApproveConfigType",
          "type": "uint8"
        },
        {
          "internalType": "uint16",
          "name": "autoApproveMaxAllowed",
          "type": "uint16"
        },
        {
          "internalType": "address",
          "name": "keeperRegistry",
          "type": "address"
        },
        {
          "internalType": "uint96",
          "name": "minLINKJuels",
          "type": "uint96"
        }
      ],
      "name": "setRegistrationConfig",
      "outputs": [],
      "stateMutability": "nonpayable",
      "type": "function"
    },
    {
      "inputs": [
        {
          "internalType": "address",
          "name": "to",
          "type": "address"
        }
      ],
      "name": "transferOwnership",
      "outputs": [],
      "stateMutability": "nonpayable",
      "type": "function"
    },
    {
      "inputs": [],
      "name": "typeAndVersion",
      "outputs": [
        {
          "internalType": "string",
          "name": "",
          "type": "string"
        }
      ],
      "stateMutability": "view",
      "type": "function"
    }
  ],
  "bytecode": "0x60a06040523480156200001157600080fd5b506040516200348d3803806200348d833981810160405281019062000037919062000590565b338060008073ffffffffffffffffffffffffffffffffffffffff168273ffffffffffffffffffffffffffffffffffffffff161415620000ad576040517f08c379a0000000000000000000000000000000000000000000000000000000008152600401620000a49062000740565b60405180910390fd5b816000806101000a81548173ffffffffffffffffffffffffffffffffffffffff021916908373ffffffffffffffffffffffffffffffffffffffff160217905550600073ffffffffffffffffffffffffffffffffffffffff168173ffffffffffffffffffffffffffffffffffffffff1614620001345762000133816200018d60201b60201c565b5b5050508473ffffffffffffffffffffffffffffffffffffffff1660808173ffffffffffffffffffffffffffffffffffffffff1660601b815250506200018284848484620002bd60201b60201c565b505050505062000951565b3373ffffffffffffffffffffffffffffffffffffffff168173ffffffffffffffffffffffffffffffffffffffff161415620001ff576040517f08c379a0000000000000000000000000000000000000000000000000000000008152600401620001f69062000762565b60405180910390fd5b80600160006101000a81548173ffffffffffffffffffffffffffffffffffffffff021916908373ffffffffffffffffffffffffffffffffffffffff1602179055508073ffffffffffffffffffffffffffffffffffffffff1660008054906101000a900473ffffffffffffffffffffffffffffffffffffffff1673ffffffffffffffffffffffffffffffffffffffff167fed8889f560326eb138920d842192f0eb3dd22b4f139c87a2c57538e05bae127860405160405180910390a350565b620002cd620004a160201b60201c565b6000600360000160059054906101000a900463ffffffff1690506040518060a001604052808660028111156200030857620003076200082c565b5b81526020018561ffff1663ffffffff1681526020018263ffffffff1681526020018473ffffffffffffffffffffffffffffffffffffffff168152602001836bffffffffffffffffffffffff16815250600360008201518160000160006101000a81548160ff021916908360028111156200038757620003866200082c565b5b021790555060208201518160000160016101000a81548163ffffffff021916908363ffffffff16021790555060408201518160000160056101000a81548163ffffffff021916908363ffffffff16021790555060608201518160000160096101000a81548173ffffffffffffffffffffffffffffffffffffffff021916908373ffffffffffffffffffffffffffffffffffffffff16021790555060808201518160010160006101000a8154816bffffffffffffffffffffffff02191690836bffffffffffffffffffffffff1602179055509050507f6293a703ec7145dfa23c5cde2e627d6a02e153fc2e9c03b14d1e22cbb4a7e9cd85858585604051620004929493929190620006d1565b60405180910390a15050505050565b60008054906101000a900473ffffffffffffffffffffffffffffffffffffffff1673ffffffffffffffffffffffffffffffffffffffff163373ffffffffffffffffffffffffffffffffffffffff161462000532576040517f08c379a000000000000000000000000000000000000000000000000000000000815260040162000529906200071e565b60405180910390fd5b565b6000815190506200054581620008f2565b92915050565b6000815190506200055c816200090c565b92915050565b60008151905062000573816200091d565b92915050565b6000815190506200058a8162000937565b92915050565b600080600080600060a08688031215620005af57620005ae6200085b565b5b6000620005bf8882890162000534565b9550506020620005d2888289016200054b565b9450506040620005e58882890162000562565b9350506060620005f88882890162000534565b92505060806200060b8882890162000579565b9150509295509295909350565b620006238162000795565b82525050565b620006348162000804565b82525050565b60006200064960168362000784565b9150620006568262000860565b602082019050919050565b60006200067060188362000784565b91506200067d8262000889565b602082019050919050565b60006200069760178362000784565b9150620006a482620008b2565b602082019050919050565b620006ba8162000818565b82525050565b620006cb81620007ec565b82525050565b6000608082019050620006e8600083018762000629565b620006f76020830186620006af565b62000706604083018562000618565b620007156060830184620006c0565b95945050505050565b6000602082019050818103600083015262000739816200063a565b9050919050565b600060208201905081810360008301526200075b8162000661565b9050919050565b600060208201905081810360008301526200077d8162000688565b9050919050565b600082825260208201905092915050565b6000620007a282620007cc565b9050919050565b6000819050620007b982620008db565b919050565b600061ffff82169050919050565b600073ffffffffffffffffffffffffffffffffffffffff82169050919050565b60006bffffffffffffffffffffffff82169050919050565b60006200081182620007a9565b9050919050565b60006200082582620007be565b9050919050565b7f4e487b7100000000000000000000000000000000000000000000000000000000600052602160045260246000fd5b600080fd5b7f4f6e6c792063616c6c61626c65206279206f776e657200000000000000000000600082015250565b7f43616e6e6f7420736574206f776e657220746f207a65726f0000000000000000600082015250565b7f43616e6e6f74207472616e7366657220746f2073656c66000000000000000000600082015250565b60038110620008ef57620008ee6200082c565b5b50565b620008fd8162000795565b81146200090957600080fd5b50565b600381106200091a57600080fd5b50565b6200092881620007be565b81146200093457600080fd5b50565b6200094281620007ec565b81146200094e57600080fd5b50565b60805160601c612b016200098c600039600081816104e50152818161050901528181610e2a0152818161160801526118960152612b016000f3fe608060405234801561001057600080fd5b50600436106100ea5760003560e01c8063850af0cb1161008c578063a4c0ed3611610066578063a4c0ed361461022a578063a793ab8b14610246578063c4d252f514610262578063f2fde38b1461027e576100ea565b8063850af0cb146101b957806388b12d55146101db5780638da5cb5b1461020c576100ea565b80633659d666116100c85780633659d66614610147578063367b9b4f1461016357806379ba50971461017f5780637e776f7f14610189576100ea565b8063181f5a77146100ef578063183310b31461010d5780631b6b6d2314610129575b600080fd5b6100f761029a565b6040516101049190612517565b60405180910390f35b61012760048036038101906101229190611f63565b6102d3565b005b6101316104e3565b60405161013e9190612464565b60405180910390f35b610161600480360381019061015c919061202e565b610507565b005b61017d60048036038101906101789190611dee565b610927565b005b6101876109d8565b005b6101a3600480360381019061019e9190611dc1565b610b6d565b6040516101b09190612449565b60405180910390f35b6101c1610bc3565b6040516101d29594939291906124c4565b60405180910390f35b6101f560048036038101906101f09190611ecf565b610d32565b6040516102039291906123e2565b60405180910390f35b610214610dff565b6040516102219190612350565b60405180910390f35b610244600480360381019061023f9190611e2e565b610e28565b005b610260600480360381019061025b9190611efc565b61120d565b005b61027c60048036038101906102779190611ecf565b6113e1565b005b61029860048036038101906102939190611dc1565b61172d565b005b6040518060400160405280601581526020017f4b656570657252656769737472617220312e312e30000000000000000000000081525081565b6102db611741565b6000600260008381526020019081526020016000206040518060400160405290816000820160009054906101000a900473ffffffffffffffffffffffffffffffffffffffff1673ffffffffffffffffffffffffffffffffffffffff1673ffffffffffffffffffffffffffffffffffffffff1681526020016000820160149054906101000a90046bffffffffffffffffffffffff166bffffffffffffffffffffffff166bffffffffffffffffffffffff16815250509050600073ffffffffffffffffffffffffffffffffffffffff16816000015173ffffffffffffffffffffffffffffffffffffffff1614156103fc576040517f4b13b31e00000000000000000000000000000000000000000000000000000000815260040160405180910390fd5b6000878787878760405160200161041795949392919061236b565b604051602081830303815290604052805190602001209050808314610468576040517f3f4d605300000000000000000000000000000000000000000000000000000000815260040160405180910390fd5b60026000848152602001908152602001600020600080820160006101000a81549073ffffffffffffffffffffffffffffffffffffffff02191690556000820160146101000a8154906bffffffffffffffffffffffff021916905550506104d889898989898988602001518a6117d1565b505050505050505050565b7f000000000000000000000000000000000000000000000000000000000000000081565b7f000000000000000000000000000000000000000000000000000000000000000073ffffffffffffffffffffffffffffffffffffffff163373ffffffffffffffffffffffffffffffffffffffff161461058c576040517f018d10be00000000000000000000000000000000000000000000000000000000815260040160405180910390fd5b600073ffffffffffffffffffffffffffffffffffffffff168673ffffffffffffffffffffffffffffffffffffffff1614156105f3576040517f05bb467c00000000000000000000000000000000000000000000000000000000815260040160405180910390fd5b6000888888888860405160200161060e95949392919061236b565b6040516020818303038152906040528051906020012090508260ff168973ffffffffffffffffffffffffffffffffffffffff16827fc3f5df4aefec026f610a3fcb08f19476492d69d2cb78b1c2eba259a8820e6a788f8f8f8e8e8e8e8e60405161067f989796959493929190612539565b60405180910390a4600060036040518060a00160405290816000820160009054906101000a900460ff1660028111156106bb576106ba6128e7565b5b60028111156106cd576106cc6128e7565b5b81526020016000820160019054906101000a900463ffffffff1663ffffffff1663ffffffff1681526020016000820160059054906101000a900463ffffffff1663ffffffff1663ffffffff1681526020016000820160099054906101000a900473ffffffffffffffffffffffffffffffffffffffff1673ffffffffffffffffffffffffffffffffffffffff1673ffffffffffffffffffffffffffffffffffffffff1681526020016001820160009054906101000a90046bffffffffffffffffffffffff166bffffffffffffffffffffffff166bffffffffffffffffffffffff168152505090506107bd81846119ec565b1561080b57600181604001516107d391906126c7565b600360000160056101000a81548163ffffffff021916908363ffffffff1602179055506108068d8b8b8b8b8b8b896117d1565b610918565b6000856002600085815260200190815260200160002060000160149054906101000a90046bffffffffffffffffffffffff166108479190612701565b905060405180604001604052808a73ffffffffffffffffffffffffffffffffffffffff168152602001826bffffffffffffffffffffffff168152506002600085815260200190815260200160002060008201518160000160006101000a81548173ffffffffffffffffffffffffffffffffffffffff021916908373ffffffffffffffffffffffffffffffffffffffff16021790555060208201518160000160146101000a8154816bffffffffffffffffffffffff02191690836bffffffffffffffffffffffff160217905550905050505b50505050505050505050505050565b61092f611741565b80600560008473ffffffffffffffffffffffffffffffffffffffff1673ffffffffffffffffffffffffffffffffffffffff16815260200190815260200160002060006101000a81548160ff0219169083151502179055508173ffffffffffffffffffffffffffffffffffffffff167f20c6237dac83526a849285a9f79d08a483291bdd3a056a0ef9ae94ecee1ad356826040516109cc9190612449565b60405180910390a25050565b600160009054906101000a900473ffffffffffffffffffffffffffffffffffffffff1673ffffffffffffffffffffffffffffffffffffffff163373ffffffffffffffffffffffffffffffffffffffff1614610a68576040517f08c379a0000000000000000000000000000000000000000000000000000000008152600401610a5f906125b3565b60405180910390fd5b60008060009054906101000a900473ffffffffffffffffffffffffffffffffffffffff169050336000806101000a81548173ffffffffffffffffffffffffffffffffffffffff021916908373ffffffffffffffffffffffffffffffffffffffff1602179055506000600160006101000a81548173ffffffffffffffffffffffffffffffffffffffff021916908373ffffffffffffffffffffffffffffffffffffffff1602179055503373ffffffffffffffffffffffffffffffffffffffff168173ffffffffffffffffffffffffffffffffffffffff167f8be0079c531659141344cd1fd0a4f28419497f9722a3daafe3b4186f6b6457e060405160405180910390a350565b6000600560008373ffffffffffffffffffffffffffffffffffffffff1673ffffffffffffffffffffffffffffffffffffffff16815260200190815260200160002060009054906101000a900460ff169050919050565b60008060008060008060036040518060a00160405290816000820160009054906101000a900460ff166002811115610bfe57610bfd6128e7565b5b6002811115610c1057610c0f6128e7565b5b81526020016000820160019054906101000a900463ffffffff1663ffffffff1663ffffffff1681526020016000820160059054906101000a900463ffffffff1663ffffffff1663ffffffff1681526020016000820160099054906101000a900473ffffffffffffffffffffffffffffffffffffffff1673ffffffffffffffffffffffffffffffffffffffff1673ffffffffffffffffffffffffffffffffffffffff1681526020016001820160009054906101000a90046bffffffffffffffffffffffff166bffffffffffffffffffffffff166bffffffffffffffffffffffff1681525050905080600001518160200151826040015183606001518460800151806bffffffffffffffffffffffff16905095509550955095509550509091929394565b6000806000600260008581526020019081526020016000206040518060400160405290816000820160009054906101000a900473ffffffffffffffffffffffffffffffffffffffff1673ffffffffffffffffffffffffffffffffffffffff1673ffffffffffffffffffffffffffffffffffffffff1681526020016000820160149054906101000a90046bffffffffffffffffffffffff166bffffffffffffffffffffffff166bffffffffffffffffffffffff16815250509050806000015181602001519250925050915091565b60008060009054906101000a900473ffffffffffffffffffffffffffffffffffffffff16905090565b7f000000000000000000000000000000000000000000000000000000000000000073ffffffffffffffffffffffffffffffffffffffff163373ffffffffffffffffffffffffffffffffffffffff1614610ead576040517f018d10be00000000000000000000000000000000000000000000000000000000815260040160405180910390fd5b81818080601f016020809104026020016040519081016040528093929190818152602001838380828437600081840152601f19601f82011690508083019250505050505050600060208201519050633659d66660e01b7bffffffffffffffffffffffffffffffffffffffffffffffffffffffff1916817bffffffffffffffffffffffffffffffffffffffffffffffffffffffff191614610f79576040517fe3d6792100000000000000000000000000000000000000000000000000000000815260040160405180910390fd5b8484848080601f016020809104026020016040519081016040528093929190818152602001838380828437600081840152601f19601f82011690508083019250505050505050600060e48201519050808314611001576040517f55e97b0d00000000000000000000000000000000000000000000000000000000815260040160405180910390fd5b8887878080601f016020809104026020016040519081016040528093929190818152602001838380828437600081840152601f19601f82011690508083019250505050505050600061012482015190508073ffffffffffffffffffffffffffffffffffffffff168373ffffffffffffffffffffffffffffffffffffffff16146110b6576040517ff8c5638e00000000000000000000000000000000000000000000000000000000815260040160405180910390fd5b6101248a8a905010156110f5576040517fdfe9309000000000000000000000000000000000000000000000000000000000815260040160405180910390fd5b600360010160009054906101000a90046bffffffffffffffffffffffff166bffffffffffffffffffffffff168b101561115a576040517fcd1c886700000000000000000000000000000000000000000000000000000000815260040160405180910390fd5b60003073ffffffffffffffffffffffffffffffffffffffff168b8b604051611183929190612337565b600060405180830381855af49150503d80600081146111be576040519150601f19603f3d011682016040523d82523d6000602084013e6111c3565b606091505b50509050806111fe576040517f649bf81000000000000000000000000000000000000000000000000000000000815260040160405180910390fd5b50505050505050505050505050565b611215611741565b6000600360000160059054906101000a900463ffffffff1690506040518060a0016040528086600281111561124d5761124c6128e7565b5b81526020018561ffff1663ffffffff1681526020018263ffffffff1681526020018473ffffffffffffffffffffffffffffffffffffffff168152602001836bffffffffffffffffffffffff16815250600360008201518160000160006101000a81548160ff021916908360028111156112c9576112c86128e7565b5b021790555060208201518160000160016101000a81548163ffffffff021916908363ffffffff16021790555060408201518160000160056101000a81548163ffffffff021916908363ffffffff16021790555060608201518160000160096101000a81548173ffffffffffffffffffffffffffffffffffffffff021916908373ffffffffffffffffffffffffffffffffffffffff16021790555060808201518160010160006101000a8154816bffffffffffffffffffffffff02191690836bffffffffffffffffffffffff1602179055509050507f6293a703ec7145dfa23c5cde2e627d6a02e153fc2e9c03b14d1e22cbb4a7e9cd858585856040516113d2949392919061247f565b60405180910390a15050505050565b6000600260008381526020019081526020016000206040518060400160405290816000820160009054906101000a900473ffffffffffffffffffffffffffffffffffffffff1673ffffffffffffffffffffffffffffffffffffffff1673ffffffffffffffffffffffffffffffffffffffff1681526020016000820160149054906101000a90046bffffffffffffffffffffffff166bffffffffffffffffffffffff166bffffffffffffffffffffffff16815250509050806000015173ffffffffffffffffffffffffffffffffffffffff163373ffffffffffffffffffffffffffffffffffffffff16148061150757506114d8610dff565b73ffffffffffffffffffffffffffffffffffffffff163373ffffffffffffffffffffffffffffffffffffffff16145b61153d576040517f61685c2b00000000000000000000000000000000000000000000000000000000815260040160405180910390fd5b600073ffffffffffffffffffffffffffffffffffffffff16816000015173ffffffffffffffffffffffffffffffffffffffff1614156115a8576040517f4b13b31e00000000000000000000000000000000000000000000000000000000815260040160405180910390fd5b60026000838152602001908152602001600020600080820160006101000a81549073ffffffffffffffffffffffffffffffffffffffff02191690556000820160146101000a8154906bffffffffffffffffffffffff0219169055505060007f000000000000000000000000000000000000000000000000000000000000000073ffffffffffffffffffffffffffffffffffffffff1663a9059cbb3384602001516040518363ffffffff1660e01b81526004016116659291906123b9565b602060405180830381600087803b15801561167f57600080fd5b505af1158015611693573d6000803e3d6000fd5b505050506040513d601f19601f820116820180604052508101906116b79190611ea2565b9050806116fb57336040517fc2e4dce80000000000000000000000000000000000000000000000000000000081526004016116f29190612350565b60405180910390fd5b827f3663fb28ebc87645eb972c9dad8521bf665c623f287e79f1c56f1eb374b82a2260405160405180910390a2505050565b611735611741565b61173e81611ae7565b50565b60008054906101000a900473ffffffffffffffffffffffffffffffffffffffff1673ffffffffffffffffffffffffffffffffffffffff163373ffffffffffffffffffffffffffffffffffffffff16146117cf576040517f08c379a00000000000000000000000000000000000000000000000000000000081526004016117c6906125d3565b60405180910390fd5b565b6000600360000160099054906101000a900473ffffffffffffffffffffffffffffffffffffffff16905060008173ffffffffffffffffffffffffffffffffffffffff1663da5c67418a8a8a8a8a6040518663ffffffff1660e01b815260040161183e95949392919061236b565b602060405180830381600087803b15801561185857600080fd5b505af115801561186c573d6000803e3d6000fd5b505050506040513d601f19601f820116820180604052508101906118909190612156565b905060007f000000000000000000000000000000000000000000000000000000000000000073ffffffffffffffffffffffffffffffffffffffff16634000aea08487856040516020016118e39190612613565b6040516020818303038152906040526040518463ffffffff1660e01b81526004016119109392919061240b565b602060405180830381600087803b15801561192a57600080fd5b505af115801561193e573d6000803e3d6000fd5b505050506040513d601f19601f820116820180604052508101906119629190611ea2565b9050806119a657826040517fc2e4dce800000000000000000000000000000000000000000000000000000000815260040161199d9190612350565b60405180910390fd5b81847fb9a292fb7e3edd920cd2d2829a3615a640c43fd7de0a0820aa0668feb4c37d4b8d6040516119d79190612517565b60405180910390a35050505050505050505050565b6000806002811115611a0157611a006128e7565b5b83600001516002811115611a1857611a176128e7565b5b1415611a275760009050611ae1565b60016002811115611a3b57611a3a6128e7565b5b83600001516002811115611a5257611a516128e7565b5b148015611aa95750600560008373ffffffffffffffffffffffffffffffffffffffff1673ffffffffffffffffffffffffffffffffffffffff16815260200190815260200160002060009054906101000a900460ff16155b15611ab75760009050611ae1565b826020015163ffffffff16836040015163ffffffff161015611adc5760019050611ae1565b600090505b92915050565b3373ffffffffffffffffffffffffffffffffffffffff168173ffffffffffffffffffffffffffffffffffffffff161415611b56576040517f08c379a0000000000000000000000000000000000000000000000000000000008152600401611b4d906125f3565b60405180910390fd5b80600160006101000a81548173ffffffffffffffffffffffffffffffffffffffff021916908373ffffffffffffffffffffffffffffffffffffffff1602179055508073ffffffffffffffffffffffffffffffffffffffff1660008054906101000a900473ffffffffffffffffffffffffffffffffffffffff1673ffffffffffffffffffffffffffffffffffffffff167fed8889f560326eb138920d842192f0eb3dd22b4f139c87a2c57538e05bae127860405160405180910390a350565b6000611c27611c2284612653565b61262e565b905082815260208101848484011115611c4357611c42612954565b5b611c4e848285612845565b509392505050565b600081359050611c6581612a03565b92915050565b600081359050611c7a81612a1a565b92915050565b600081519050611c8f81612a1a565b92915050565b600081359050611ca481612a31565b92915050565b60008083601f840112611cc057611cbf61294a565b5b8235905067ffffffffffffffff811115611cdd57611cdc612945565b5b602083019150836001820283011115611cf957611cf861294f565b5b9250929050565b600081359050611d0f81612a48565b92915050565b600082601f830112611d2a57611d2961294a565b5b8135611d3a848260208601611c14565b91505092915050565b600081359050611d5281612a58565b92915050565b600081359050611d6781612a6f565b92915050565b600081519050611d7c81612a6f565b92915050565b600081359050611d9181612a86565b92915050565b600081359050611da681612a9d565b92915050565b600081359050611dbb81612ab4565b92915050565b600060208284031215611dd757611dd661295e565b5b6000611de584828501611c56565b91505092915050565b60008060408385031215611e0557611e0461295e565b5b6000611e1385828601611c56565b9250506020611e2485828601611c6b565b9150509250929050565b60008060008060608587031215611e4857611e4761295e565b5b6000611e5687828801611c56565b9450506020611e6787828801611d58565b935050604085013567ffffffffffffffff811115611e8857611e87612959565b5b611e9487828801611caa565b925092505092959194509250565b600060208284031215611eb857611eb761295e565b5b6000611ec684828501611c80565b91505092915050565b600060208284031215611ee557611ee461295e565b5b6000611ef384828501611c95565b91505092915050565b60008060008060808587031215611f1657611f1561295e565b5b6000611f2487828801611d00565b9450506020611f3587828801611d43565b9350506040611f4687828801611c56565b9250506060611f5787828801611dac565b91505092959194509250565b600080600080600080600060c0888a031215611f8257611f8161295e565b5b600088013567ffffffffffffffff811115611fa057611f9f612959565b5b611fac8a828b01611d15565b9750506020611fbd8a828b01611c56565b9650506040611fce8a828b01611d82565b9550506060611fdf8a828b01611c56565b945050608088013567ffffffffffffffff81111561200057611fff612959565b5b61200c8a828b01611caa565b935093505060a061201f8a828b01611c95565b91505092959891949750929550565b60008060008060008060008060008060006101208c8e0312156120545761205361295e565b5b60008c013567ffffffffffffffff81111561207257612071612959565b5b61207e8e828f01611d15565b9b505060208c013567ffffffffffffffff81111561209f5761209e612959565b5b6120ab8e828f01611caa565b9a509a505060406120be8e828f01611c56565b98505060606120cf8e828f01611d82565b97505060806120e08e828f01611c56565b96505060a08c013567ffffffffffffffff81111561210157612100612959565b5b61210d8e828f01611caa565b955095505060c06121208e828f01611dac565b93505060e06121318e828f01611d97565b9250506101006121438e828f01611c56565b9150509295989b509295989b9093969950565b60006020828403121561216c5761216b61295e565b5b600061217a84828501611d6d565b91505092915050565b61218c81612743565b82525050565b61219b81612755565b82525050565b60006121ad838561269a565b93506121ba838584612845565b6121c383612963565b840190509392505050565b60006121da83856126ab565b93506121e7838584612845565b82840190509392505050565b60006121fe82612684565b612208818561269a565b9350612218818560208601612854565b61222181612963565b840191505092915050565b612235816127eb565b82525050565b6122448161280f565b82525050565b60006122558261268f565b61225f81856126b6565b935061226f818560208601612854565b61227881612963565b840191505092915050565b60006122906016836126b6565b915061229b82612974565b602082019050919050565b60006122b36016836126b6565b91506122be8261299d565b602082019050919050565b60006122d66017836126b6565b91506122e1826129c6565b602082019050919050565b6122f581612821565b82525050565b612304816127ac565b82525050565b612313816127b6565b82525050565b61232281612833565b82525050565b612331816127d3565b82525050565b60006123448284866121ce565b91508190509392505050565b60006020820190506123656000830184612183565b92915050565b60006080820190506123806000830188612183565b61238d602083018761230a565b61239a6040830186612183565b81810360608301526123ad8184866121a1565b90509695505050505050565b60006040820190506123ce6000830185612183565b6123db6020830184612319565b9392505050565b60006040820190506123f76000830185612183565b6124046020830184612328565b9392505050565b60006060820190506124206000830186612183565b61242d6020830185612319565b818103604083015261243f81846121f3565b9050949350505050565b600060208201905061245e6000830184612192565b92915050565b6000602082019050612479600083018461222c565b92915050565b6000608082019050612494600083018761223b565b6124a160208301866122ec565b6124ae6040830185612183565b6124bb6060830184612328565b95945050505050565b600060a0820190506124d9600083018861223b565b6124e6602083018761230a565b6124f3604083018661230a565b6125006060830185612183565b61250d60808301846122fb565b9695505050505050565b60006020820190508181036000830152612531818461224a565b905092915050565b600060c0820190508181036000830152612553818b61224a565b9050818103602083015261256881898b6121a1565b9050612577604083018861230a565b6125846060830187612183565b81810360808301526125978185876121a1565b90506125a660a0830184612328565b9998505050505050505050565b600060208201905081810360008301526125cc81612283565b9050919050565b600060208201905081810360008301526125ec816122a6565b9050919050565b6000602082019050818103600083015261260c816122c9565b9050919050565b600060208201905061262860008301846122fb565b92915050565b6000612638612649565b90506126448282612887565b919050565b6000604051905090565b600067ffffffffffffffff82111561266e5761266d612916565b5b61267782612963565b9050602081019050919050565b600081519050919050565b600081519050919050565b600082825260208201905092915050565b600081905092915050565b600082825260208201905092915050565b60006126d2826127b6565b91506126dd836127b6565b92508263ffffffff038211156126f6576126f56128b8565b5b828201905092915050565b600061270c826127d3565b9150612717836127d3565b9250826bffffffffffffffffffffffff03821115612738576127376128b8565b5b828201905092915050565b600061274e8261278c565b9050919050565b60008115159050919050565b6000819050919050565b6000819050612779826129ef565b919050565b600061ffff82169050919050565b600073ffffffffffffffffffffffffffffffffffffffff82169050919050565b6000819050919050565b600063ffffffff82169050919050565b600060ff82169050919050565b60006bffffffffffffffffffffffff82169050919050565b60006127f6826127fd565b9050919050565b60006128088261278c565b9050919050565b600061281a8261276b565b9050919050565b600061282c8261277e565b9050919050565b600061283e826127d3565b9050919050565b82818337600083830152505050565b60005b83811015612872578082015181840152602081019050612857565b83811115612881576000848401525b50505050565b61289082612963565b810181811067ffffffffffffffff821117156128af576128ae612916565b5b80604052505050565b7f4e487b7100000000000000000000000000000000000000000000000000000000600052601160045260246000fd5b7f4e487b7100000000000000000000000000000000000000000000000000000000600052602160045260246000fd5b7f4e487b7100000000000000000000000000000000000000000000000000000000600052604160045260246000fd5b600080fd5b600080fd5b600080fd5b600080fd5b600080fd5b600080fd5b6000601f19601f8301169050919050565b7f4d7573742062652070726f706f736564206f776e657200000000000000000000600082015250565b7f4f6e6c792063616c6c61626c65206279206f776e657200000000000000000000600082015250565b7f43616e6e6f74207472616e7366657220746f2073656c66000000000000000000600082015250565b60038110612a00576129ff6128e7565b5b50565b612a0c81612743565b8114612a1757600080fd5b50565b612a2381612755565b8114612a2e57600080fd5b50565b612a3a81612761565b8114612a4557600080fd5b50565b60038110612a5557600080fd5b50565b612a618161277e565b8114612a6c57600080fd5b50565b612a78816127ac565b8114612a8357600080fd5b50565b612a8f816127b6565b8114612a9a57600080fd5b50565b612aa6816127c6565b8114612ab157600080fd5b50565b612abd816127d3565b8114612ac857600080fd5b5056fea26469706673582212206c9e3cb341b760cb2133c08f07c8546249217012c45edce463fad61799ad9e7964736f6c63430008060033",
  "linkReferences": {},
  "deployedLinkReferences": {}
}