{
  "_format": "hh-sol-artifact-1",
  "contractName": "KNN3ProfileClient",
  "sourceName": "contracts/KNN3PageRankClient.sol",
  "abi": [
    {
      "inputs": [
        {
          "internalType": "address",
          "name": "linkAddress",
          "type": "address"
        }
      ],
      "stateMutability": "nonpayable",
      "type": "constructor"
    },
    {
      "inputs": [],
      "name": "InvalidArrayData",
      "type": "error"
    },
    {
      "anonymous": false,
      "inputs": [
        {
          "indexed": true,
          "internalType": "bytes32",
          "name": "id",
          "type": "bytes32"
        }
      ],
      "name": "ChainlinkCancelled",
      "type": "event"
    },
    {
      "anonymous": false,
      "inputs": [
        {
          "indexed": true,
          "internalType": "bytes32",
          "name": "id",
          "type": "bytes32"
        }
      ],
      "name": "ChainlinkFulfilled",
      "type": "event"
    },
    {
      "anonymous": false,
      "inputs": [
        {
          "indexed": true,
          "internalType": "bytes32",
          "name": "id",
          "type": "bytes32"
        }
      ],
      "name": "ChainlinkRequested",
      "type": "event"
    },
    {
      "anonymous": false,
      "inputs": [
        {
          "indexed": true,
          "internalType": "address",
          "name": "from",
          "type": "address"
        },
        {
          "indexed": true,
          "internalType": "address",
          "name": "to",
          "type": "address"
        }
      ],
      "name": "OwnershipTransferRequested",
      "type": "event"
    },
    {
      "anonymous": false,
      "inputs": [
        {
          "indexed": true,
          "internalType": "address",
          "name": "from",
          "type": "address"
        },
        {
          "indexed": true,
          "internalType": "address",
          "name": "to",
          "type": "address"
        }
      ],
      "name": "OwnershipTransferred",
      "type": "event"
    },
    {
      "anonymous": false,
      "inputs": [
        {
          "indexed": true,
          "internalType": "bytes32",
          "name": "requestId",
          "type": "bytes32"
        },
        {
          "indexed": false,
          "internalType": "address[]",
          "name": "addr",
          "type": "address[]"
        },
        {
          "indexed": false,
          "internalType": "string[]",
          "name": "rank",
          "type": "string[]"
        },
        {
          "indexed": false,
          "internalType": "string[]",
          "name": "score",
          "type": "string[]"
        }
      ],
      "name": "RequestPageRankFulfilled",
      "type": "event"
    },
    {
      "inputs": [
        {
          "internalType": "uint256",
          "name": "",
          "type": "uint256"
        }
      ],
      "name": "PageRankArr",
      "outputs": [
        {
          "internalType": "address",
          "name": "addr",
          "type": "address"
        },
        {
          "internalType": "string",
          "name": "rank",
          "type": "string"
        },
        {
          "internalType": "string",
          "name": "score",
          "type": "string"
        },
        {
          "internalType": "uint256",
          "name": "blockNumber",
          "type": "uint256"
        }
      ],
      "stateMutability": "view",
      "type": "function"
    },
    {
      "inputs": [],
      "name": "acceptOwnership",
      "outputs": [],
      "stateMutability": "nonpayable",
      "type": "function"
    },
    {
      "inputs": [
        {
          "internalType": "bytes32",
          "name": "_requestId",
          "type": "bytes32"
        },
        {
          "internalType": "uint256",
          "name": "_payment",
          "type": "uint256"
        },
        {
          "internalType": "bytes4",
          "name": "_callbackFunctionId",
          "type": "bytes4"
        },
        {
          "internalType": "uint256",
          "name": "_expiration",
          "type": "uint256"
        }
      ],
      "name": "cancelRequest",
      "outputs": [],
      "stateMutability": "nonpayable",
      "type": "function"
    },
    {
      "inputs": [
        {
          "internalType": "bytes32",
          "name": "_requestId",
          "type": "bytes32"
        },
        {
          "internalType": "address[]",
          "name": "addr",
          "type": "address[]"
        },
        {
          "internalType": "string[]",
          "name": "rank",
          "type": "string[]"
        },
        {
          "internalType": "string[]",
          "name": "score",
          "type": "string[]"
        }
      ],
      "name": "fulfillPageRankInfo",
      "outputs": [],
      "stateMutability": "nonpayable",
      "type": "function"
    },
    {
      "inputs": [],
      "name": "getChainlinkToken",
      "outputs": [
        {
          "internalType": "address",
          "name": "",
          "type": "address"
        }
      ],
      "stateMutability": "view",
      "type": "function"
    },
    {
      "inputs": [],
      "name": "getPageRank",
      "outputs": [
        {
          "internalType": "address[]",
          "name": "",
          "type": "address[]"
        },
        {
          "internalType": "string[]",
          "name": "",
          "type": "string[]"
        },
        {
          "internalType": "string[]",
          "name": "",
          "type": "string[]"
        }
      ],
      "stateMutability": "view",
      "type": "function"
    },
    {
      "inputs": [],
      "name": "owner",
      "outputs": [
        {
          "internalType": "address",
          "name": "",
          "type": "address"
        }
      ],
      "stateMutability": "view",
      "type": "function"
    },
    {
      "inputs": [
        {
          "internalType": "address",
          "name": "oracle",
          "type": "address"
        },
        {
          "internalType": "string",
          "name": "jobId",
          "type": "string"
        }
      ],
      "name": "requestPageRankInfo",
      "outputs": [],
      "stateMutability": "nonpayable",
      "type": "function"
    },
    {
      "inputs": [
        {
          "internalType": "address",
          "name": "oracle",
          "type": "address"
        },
        {
          "internalType": "string",
          "name": "jobId",
          "type": "string"
        },
        {
          "internalType": "string[]",
          "name": "params",
          "type": "string[]"
        }
      ],
      "name": "requestPageRankInfoParams",
      "outputs": [],
      "stateMutability": "nonpayable",
      "type": "function"
    },
    {
      "inputs": [
        {
          "internalType": "address",
          "name": "to",
          "type": "address"
        }
      ],
      "name": "transferOwnership",
      "outputs": [],
      "stateMutability": "nonpayable",
      "type": "function"
    },
    {
      "inputs": [],
      "name": "withdrawLink",
      "outputs": [],
      "stateMutability": "nonpayable",
      "type": "function"
    }
  ],
  "bytecode": "0x608060405260016004553480156200001657600080fd5b506040516200355b3803806200355b83398181016040528101906200003c919062000333565b338060008073ffffffffffffffffffffffffffffffffffffffff168273ffffffffffffffffffffffffffffffffffffffff1603620000b1576040517f08c379a0000000000000000000000000000000000000000000000000000000008152600401620000a890620003c6565b60405180910390fd5b81600660006101000a81548173ffffffffffffffffffffffffffffffffffffffff021916908373ffffffffffffffffffffffffffffffffffffffff160217905550600073ffffffffffffffffffffffffffffffffffffffff168173ffffffffffffffffffffffffffffffffffffffff1614620001395762000138816200015460201b60201c565b5b5050506200014d816200028560201b60201c565b506200045a565b3373ffffffffffffffffffffffffffffffffffffffff168173ffffffffffffffffffffffffffffffffffffffff1603620001c5576040517f08c379a0000000000000000000000000000000000000000000000000000000008152600401620001bc9062000438565b60405180910390fd5b80600760006101000a81548173ffffffffffffffffffffffffffffffffffffffff021916908373ffffffffffffffffffffffffffffffffffffffff1602179055508073ffffffffffffffffffffffffffffffffffffffff16600660009054906101000a900473ffffffffffffffffffffffffffffffffffffffff1673ffffffffffffffffffffffffffffffffffffffff167fed8889f560326eb138920d842192f0eb3dd22b4f139c87a2c57538e05bae127860405160405180910390a350565b80600260006101000a81548173ffffffffffffffffffffffffffffffffffffffff021916908373ffffffffffffffffffffffffffffffffffffffff16021790555050565b600080fd5b600073ffffffffffffffffffffffffffffffffffffffff82169050919050565b6000620002fb82620002ce565b9050919050565b6200030d81620002ee565b81146200031957600080fd5b50565b6000815190506200032d8162000302565b92915050565b6000602082840312156200034c576200034b620002c9565b5b60006200035c848285016200031c565b91505092915050565b600082825260208201905092915050565b7f43616e6e6f7420736574206f776e657220746f207a65726f0000000000000000600082015250565b6000620003ae60188362000365565b9150620003bb8262000376565b602082019050919050565b60006020820190508181036000830152620003e1816200039f565b9050919050565b7f43616e6e6f74207472616e7366657220746f2073656c66000000000000000000600082015250565b60006200042060178362000365565b91506200042d82620003e8565b602082019050919050565b60006020820190508181036000830152620004538162000411565b9050919050565b6130f1806200046a6000396000f3fe608060405234801561001057600080fd5b50600436106100a95760003560e01c8063e4b9f2d511610071578063e4b9f2d514610131578063e95a500a14610151578063ec65d0f81461016d578063f0a3efe514610189578063f1e587aa146101a5578063f2fde38b146101c1576100a9565b8063165d35e1146100ae57806379ba5097146100cc5780638da5cb5b146100d65780638dc654a2146100f457806398078fa6146100fe575b600080fd5b6100b66101dd565b6040516100c39190611b4d565b60405180910390f35b6100d46101ec565b005b6100de610383565b6040516100eb9190611b4d565b60405180910390f35b6100fc6103ad565b005b61011860048036038101906101139190611bb2565b6104fa565b6040516101289493929190611c7e565b60405180910390f35b61013961066a565b60405161014893929190611e9b565b60405180910390f35b61016b6004803603810190610166919061212e565b6109f2565b005b61018760048036038101906101829190612247565b610a6d565b005b6101a3600480360381019061019e91906122ae565b610a87565b005b6101bf60048036038101906101ba91906123cd565b610ab7565b005b6101db60048036038101906101d69190612488565b610dd2565b005b60006101e7610de6565b905090565b600760009054906101000a900473ffffffffffffffffffffffffffffffffffffffff1673ffffffffffffffffffffffffffffffffffffffff163373ffffffffffffffffffffffffffffffffffffffff161461027c576040517f08c379a000000000000000000000000000000000000000000000000000000000815260040161027390612501565b60405180910390fd5b6000600660009054906101000a900473ffffffffffffffffffffffffffffffffffffffff16905033600660006101000a81548173ffffffffffffffffffffffffffffffffffffffff021916908373ffffffffffffffffffffffffffffffffffffffff1602179055506000600760006101000a81548173ffffffffffffffffffffffffffffffffffffffff021916908373ffffffffffffffffffffffffffffffffffffffff1602179055503373ffffffffffffffffffffffffffffffffffffffff168173ffffffffffffffffffffffffffffffffffffffff167f8be0079c531659141344cd1fd0a4f28419497f9722a3daafe3b4186f6b6457e060405160405180910390a350565b6000600660009054906101000a900473ffffffffffffffffffffffffffffffffffffffff16905090565b6103b5610e10565b60006103bf610de6565b90508073ffffffffffffffffffffffffffffffffffffffff1663a9059cbb338373ffffffffffffffffffffffffffffffffffffffff166370a08231306040518263ffffffff1660e01b81526004016104179190611b4d565b602060405180830381865afa158015610434573d6000803e3d6000fd5b505050506040513d601f19601f820116820180604052508101906104589190612536565b6040518363ffffffff1660e01b8152600401610475929190612563565b6020604051808303816000875af1158015610494573d6000803e3d6000fd5b505050506040513d601f19601f820116820180604052508101906104b891906125c4565b6104f7576040517f08c379a00000000000000000000000000000000000000000000000000000000081526004016104ee9061263d565b60405180910390fd5b50565b6008818154811061050a57600080fd5b90600052602060002090600402016000915090508060000160009054906101000a900473ffffffffffffffffffffffffffffffffffffffff16908060010180546105539061268c565b80601f016020809104026020016040519081016040528092919081815260200182805461057f9061268c565b80156105cc5780601f106105a1576101008083540402835291602001916105cc565b820191906000526020600020905b8154815290600101906020018083116105af57829003601f168201915b5050505050908060020180546105e19061268c565b80601f016020809104026020016040519081016040528092919081815260200182805461060d9061268c565b801561065a5780601f1061062f5761010080835404028352916020019161065a565b820191906000526020600020905b81548152906001019060200180831161063d57829003601f168201915b5050505050908060030154905084565b6060806060600060088054905067ffffffffffffffff8111156106905761068f611f1d565b5b6040519080825280602002602001820160405280156106be5781602001602082028036833780820191505090505b509050600060088054905067ffffffffffffffff8111156106e2576106e1611f1d565b5b60405190808252806020026020018201604052801561071557816020015b60608152602001906001900390816107005790505b509050600060088054905067ffffffffffffffff81111561073957610738611f1d565b5b60405190808252806020026020018201604052801561076c57816020015b60608152602001906001900390816107575790505b50905060005b6008805490508110156109e057600060088281548110610795576107946126bd565b5b90600052602060002090600402016040518060800160405290816000820160009054906101000a900473ffffffffffffffffffffffffffffffffffffffff1673ffffffffffffffffffffffffffffffffffffffff1673ffffffffffffffffffffffffffffffffffffffff1681526020016001820180546108149061268c565b80601f01602080910402602001604051908101604052809291908181526020018280546108409061268c565b801561088d5780601f106108625761010080835404028352916020019161088d565b820191906000526020600020905b81548152906001019060200180831161087057829003601f168201915b505050505081526020016002820180546108a69061268c565b80601f01602080910402602001604051908101604052809291908181526020018280546108d29061268c565b801561091f5780601f106108f45761010080835404028352916020019161091f565b820191906000526020600020905b81548152906001019060200180831161090257829003601f168201915b505050505081526020016003820154815250509050806000015185838151811061094c5761094b6126bd565b5b602002602001019073ffffffffffffffffffffffffffffffffffffffff16908173ffffffffffffffffffffffffffffffffffffffff1681525050806020015184838151811061099e5761099d6126bd565b5b602002602001018190525080604001518383815181106109c1576109c06126bd565b5b60200260200101819052505080806109d89061271b565b915050610772565b50828282955095509550505050909192565b6000610a0e610a0084610ea2565b3063f1e587aa60e01b610ecb565b9050610a5a6040518060400160405280600681526020017f706172616d7300000000000000000000000000000000000000000000000000008152508383610efc9092919063ffffffff16565b610a668482600a610f83565b5050505050565b610a75610e10565b610a818484848461104f565b50505050565b6000610aa3610a9583610ea2565b3063f1e587aa60e01b610ecb565b9050610ab18382600a610f83565b50505050565b836005600082815260200190815260200160002060009054906101000a900473ffffffffffffffffffffffffffffffffffffffff1673ffffffffffffffffffffffffffffffffffffffff163373ffffffffffffffffffffffffffffffffffffffff1614610b59576040517f08c379a0000000000000000000000000000000000000000000000000000000008152600401610b50906127d5565b60405180910390fd5b6005600082815260200190815260200160002060006101000a81549073ffffffffffffffffffffffffffffffffffffffff0219169055807f7cc135e0cebb02c3480ae5d74d377283180a2601f8f644edf7987b009316c63a60405160405180910390a28251845114610bf7576040517fd09ec21700000000000000000000000000000000000000000000000000000000815260040160405180910390fd5b8151845114610c32576040517fd09ec21700000000000000000000000000000000000000000000000000000000815260040160405180910390fd5b60086000610c40919061199e565b60005b8451811015610d8e5760086040518060800160405280878481518110610c6c57610c6b6126bd565b5b602002602001015173ffffffffffffffffffffffffffffffffffffffff168152602001868481518110610ca257610ca16126bd565b5b60200260200101518152602001858481518110610cc257610cc16126bd565b5b6020026020010151815260200143815250908060018154018082558091505060019003906000526020600020906004020160009091909190915060008201518160000160006101000a81548173ffffffffffffffffffffffffffffffffffffffff021916908373ffffffffffffffffffffffffffffffffffffffff1602179055506020820151816001019081610d5891906129a1565b506040820151816002019081610d6e91906129a1565b506060820151816003015550508080610d869061271b565b915050610c43565b50847fb84c09ae4d9387c9287dcf8442ac96d6d8b36a849b8995772100fe7db0e68b4a858585604051610dc393929190611e9b565b60405180910390a25050505050565b610dda610e10565b610de381611162565b50565b6000600260009054906101000a900473ffffffffffffffffffffffffffffffffffffffff16905090565b600660009054906101000a900473ffffffffffffffffffffffffffffffffffffffff1673ffffffffffffffffffffffffffffffffffffffff163373ffffffffffffffffffffffffffffffffffffffff1614610ea0576040517f08c379a0000000000000000000000000000000000000000000000000000000008152600401610e9790612abf565b60405180910390fd5b565b6000808290506000815103610ebd576000801b915050610ec6565b60208301519150505b919050565b610ed36119c2565b610edb6119c2565b610ef285858584611290909392919063ffffffff16565b9150509392505050565b610f1382846080015161134090919063ffffffff16565b610f208360800151611365565b60005b8151811015610f7057610f5d828281518110610f4257610f416126bd565b5b6020026020010151856080015161134090919063ffffffff16565b8080610f689061271b565b915050610f23565b50610f7e8360800151611373565b505050565b6000806004549050600181610f989190612adf565b6004819055506000634042994660e01b60008087600001513089604001518760018c6080015160000151604051602401610fd9989796959493929190612b86565b604051602081830303815290604052907bffffffffffffffffffffffffffffffffffffffffffffffffffffffff19166020820180517bffffffffffffffffffffffffffffffffffffffffffffffffffffffff8381831617835250505050905061104486838684611381565b925050509392505050565b60006005600086815260200190815260200160002060009054906101000a900473ffffffffffffffffffffffffffffffffffffffff1690506005600086815260200190815260200160002060006101000a81549073ffffffffffffffffffffffffffffffffffffffff0219169055847fe1fe3afa0f7f761ff0a8b89086790efd5140d2907ebd5b7ff6bfcb5e075fd4c560405160405180910390a28073ffffffffffffffffffffffffffffffffffffffff16636ee4d553868686866040518563ffffffff1660e01b81526004016111299493929190612c0b565b600060405180830381600087803b15801561114357600080fd5b505af1158015611157573d6000803e3d6000fd5b505050505050505050565b3373ffffffffffffffffffffffffffffffffffffffff168173ffffffffffffffffffffffffffffffffffffffff16036111d0576040517f08c379a00000000000000000000000000000000000000000000000000000000081526004016111c790612c9c565b60405180910390fd5b80600760006101000a81548173ffffffffffffffffffffffffffffffffffffffff021916908373ffffffffffffffffffffffffffffffffffffffff1602179055508073ffffffffffffffffffffffffffffffffffffffff16600660009054906101000a900473ffffffffffffffffffffffffffffffffffffffff1673ffffffffffffffffffffffffffffffffffffffff167fed8889f560326eb138920d842192f0eb3dd22b4f139c87a2c57538e05bae127860405160405180910390a350565b6112986119c2565b6112a88560800151610100611516565b508385600001818152505082856020019073ffffffffffffffffffffffffffffffffffffffff16908173ffffffffffffffffffffffffffffffffffffffff16815250508185604001907bffffffffffffffffffffffffffffffffffffffffffffffffffffffff191690817bffffffffffffffffffffffffffffffffffffffffffffffffffffffff191681525050849050949350505050565b61134d8260038351611580565b611360818361170590919063ffffffff16565b505050565b611370816004611727565b50565b61137e816007611727565b50565b60003084604051602001611396929190612d6b565b604051602081830303815290604052805190602001209050846005600083815260200190815260200160002060006101000a81548173ffffffffffffffffffffffffffffffffffffffff021916908373ffffffffffffffffffffffffffffffffffffffff160217905550807fb5e6e01e79f91267dc17b4e6314d5d4d03593d2ceee0fbb452b750bd70ea5af960405160405180910390a2600260009054906101000a900473ffffffffffffffffffffffffffffffffffffffff1673ffffffffffffffffffffffffffffffffffffffff16634000aea08685856040518463ffffffff1660e01b815260040161148c93929190612d97565b6020604051808303816000875af11580156114ab573d6000803e3d6000fd5b505050506040513d601f19601f820116820180604052508101906114cf91906125c4565b61150e576040517f08c379a000000000000000000000000000000000000000000000000000000000815260040161150590612e47565b60405180910390fd5b949350505050565b61151e611a2f565b600060208361152d9190612e96565b146115595760208261153f9190612e96565b602061154b9190612ec7565b826115569190612adf565b91505b81836020018181525050604051808452600081528281016020016040525082905092915050565b60178167ffffffffffffffff16116115b7576115b18160058460ff16901b60ff16178461174990919063ffffffff16565b50611700565b60ff8167ffffffffffffffff161161160d576115e6601860058460ff16901b178461174990919063ffffffff16565b506116078167ffffffffffffffff166001856117699092919063ffffffff16565b506116ff565b61ffff8167ffffffffffffffff16116116645761163d601960058460ff16901b178461174990919063ffffffff16565b5061165e8167ffffffffffffffff166002856117699092919063ffffffff16565b506116fe565b63ffffffff8167ffffffffffffffff16116116bd57611696601a60058460ff16901b178461174990919063ffffffff16565b506116b78167ffffffffffffffff166004856117699092919063ffffffff16565b506116fd565b6116da601b60058460ff16901b178461174990919063ffffffff16565b506116fb8167ffffffffffffffff166008856117699092919063ffffffff16565b505b5b5b5b505050565b61170d611a2f565b61171f8384600001515184855161178b565b905092915050565b611744601f60058360ff16901b178361174990919063ffffffff16565b505050565b611751611a2f565b611761838460000151518461187a565b905092915050565b611771611a2f565b6117828485600001515185856118d0565b90509392505050565b611793611a2f565b82518211156117a157600080fd5b846020015182856117b29190612adf565b11156117e7576117e68560026117d7886020015188876117d29190612adf565b61195e565b6117e19190612efb565b61197a565b5b6000808651805187602083010193508088870111156118065787860182525b60208701925050505b6020841061184d57805182526020826118289190612adf565b91506020816118379190612adf565b90506020846118469190612ec7565b935061180f565b60006001856020036101000a03905080198251168184511681811785525050508692505050949350505050565b611882611a2f565b836020015183106118a8576118a784600286602001516118a29190612efb565b61197a565b5b835180516020858301018481538186036118c3576001820183525b5050508390509392505050565b6118d8611a2f565b846020015184836118e99190612adf565b11156119115761191085600286856119019190612adf565b61190b9190612efb565b61197a565b5b60006001836101006119239190613070565b61192d9190612ec7565b905085518386820101858319825116178152815185880111156119505784870182525b505085915050949350505050565b60008183111561197057829050611974565b8190505b92915050565b60008260000151905061198d8383611516565b506119988382611705565b50505050565b50805460008255600402906000526020600020908101906119bf9190611a49565b50565b6040518060a0016040528060008019168152602001600073ffffffffffffffffffffffffffffffffffffffff16815260200160007bffffffffffffffffffffffffffffffffffffffffffffffffffffffff1916815260200160008152602001611a29611a2f565b81525090565b604051806040016040528060608152602001600081525090565b5b80821115611aab57600080820160006101000a81549073ffffffffffffffffffffffffffffffffffffffff0219169055600182016000611a8a9190611aaf565b600282016000611a9a9190611aaf565b600382016000905550600401611a4a565b5090565b508054611abb9061268c565b6000825580601f10611acd5750611aec565b601f016020900490600052602060002090810190611aeb9190611aef565b5b50565b5b80821115611b08576000816000905550600101611af0565b5090565b600073ffffffffffffffffffffffffffffffffffffffff82169050919050565b6000611b3782611b0c565b9050919050565b611b4781611b2c565b82525050565b6000602082019050611b626000830184611b3e565b92915050565b6000604051905090565b600080fd5b600080fd5b6000819050919050565b611b8f81611b7c565b8114611b9a57600080fd5b50565b600081359050611bac81611b86565b92915050565b600060208284031215611bc857611bc7611b72565b5b6000611bd684828501611b9d565b91505092915050565b600081519050919050565b600082825260208201905092915050565b60005b83811015611c19578082015181840152602081019050611bfe565b60008484015250505050565b6000601f19601f8301169050919050565b6000611c4182611bdf565b611c4b8185611bea565b9350611c5b818560208601611bfb565b611c6481611c25565b840191505092915050565b611c7881611b7c565b82525050565b6000608082019050611c936000830187611b3e565b8181036020830152611ca58186611c36565b90508181036040830152611cb98185611c36565b9050611cc86060830184611c6f565b95945050505050565b600081519050919050565b600082825260208201905092915050565b6000819050602082019050919050565b611d0681611b2c565b82525050565b6000611d188383611cfd565b60208301905092915050565b6000602082019050919050565b6000611d3c82611cd1565b611d468185611cdc565b9350611d5183611ced565b8060005b83811015611d82578151611d698882611d0c565b9750611d7483611d24565b925050600181019050611d55565b5085935050505092915050565b600081519050919050565b600082825260208201905092915050565b6000819050602082019050919050565b600082825260208201905092915050565b6000611dd782611bdf565b611de18185611dbb565b9350611df1818560208601611bfb565b611dfa81611c25565b840191505092915050565b6000611e118383611dcc565b905092915050565b6000602082019050919050565b6000611e3182611d8f565b611e3b8185611d9a565b935083602082028501611e4d85611dab565b8060005b85811015611e895784840389528151611e6a8582611e05565b9450611e7583611e19565b925060208a01995050600181019050611e51565b50829750879550505050505092915050565b60006060820190508181036000830152611eb58186611d31565b90508181036020830152611ec98185611e26565b90508181036040830152611edd8184611e26565b9050949350505050565b611ef081611b2c565b8114611efb57600080fd5b50565b600081359050611f0d81611ee7565b92915050565b600080fd5b600080fd5b7f4e487b7100000000000000000000000000000000000000000000000000000000600052604160045260246000fd5b611f5582611c25565b810181811067ffffffffffffffff82111715611f7457611f73611f1d565b5b80604052505050565b6000611f87611b68565b9050611f938282611f4c565b919050565b600067ffffffffffffffff821115611fb357611fb2611f1d565b5b611fbc82611c25565b9050602081019050919050565b82818337600083830152505050565b6000611feb611fe684611f98565b611f7d565b90508281526020810184848401111561200757612006611f18565b5b612012848285611fc9565b509392505050565b600082601f83011261202f5761202e611f13565b5b813561203f848260208601611fd8565b91505092915050565b600067ffffffffffffffff82111561206357612062611f1d565b5b602082029050602081019050919050565b600080fd5b600061208c61208784612048565b611f7d565b905080838252602082019050602084028301858111156120af576120ae612074565b5b835b818110156120f657803567ffffffffffffffff8111156120d4576120d3611f13565b5b8086016120e1898261201a565b855260208501945050506020810190506120b1565b5050509392505050565b600082601f83011261211557612114611f13565b5b8135612125848260208601612079565b91505092915050565b60008060006060848603121561214757612146611b72565b5b600061215586828701611efe565b935050602084013567ffffffffffffffff81111561217657612175611b77565b5b6121828682870161201a565b925050604084013567ffffffffffffffff8111156121a3576121a2611b77565b5b6121af86828701612100565b9150509250925092565b6000819050919050565b6121cc816121b9565b81146121d757600080fd5b50565b6000813590506121e9816121c3565b92915050565b60007fffffffff0000000000000000000000000000000000000000000000000000000082169050919050565b612224816121ef565b811461222f57600080fd5b50565b6000813590506122418161221b565b92915050565b6000806000806080858703121561226157612260611b72565b5b600061226f878288016121da565b945050602061228087828801611b9d565b935050604061229187828801612232565b92505060606122a287828801611b9d565b91505092959194509250565b600080604083850312156122c5576122c4611b72565b5b60006122d385828601611efe565b925050602083013567ffffffffffffffff8111156122f4576122f3611b77565b5b6123008582860161201a565b9150509250929050565b600067ffffffffffffffff82111561232557612324611f1d565b5b602082029050602081019050919050565b60006123496123448461230a565b611f7d565b9050808382526020820190506020840283018581111561236c5761236b612074565b5b835b8181101561239557806123818882611efe565b84526020840193505060208101905061236e565b5050509392505050565b600082601f8301126123b4576123b3611f13565b5b81356123c4848260208601612336565b91505092915050565b600080600080608085870312156123e7576123e6611b72565b5b60006123f5878288016121da565b945050602085013567ffffffffffffffff81111561241657612415611b77565b5b6124228782880161239f565b935050604085013567ffffffffffffffff81111561244357612442611b77565b5b61244f87828801612100565b925050606085013567ffffffffffffffff8111156124705761246f611b77565b5b61247c87828801612100565b91505092959194509250565b60006020828403121561249e5761249d611b72565b5b60006124ac84828501611efe565b91505092915050565b7f4d7573742062652070726f706f736564206f776e657200000000000000000000600082015250565b60006124eb601683611bea565b91506124f6826124b5565b602082019050919050565b6000602082019050818103600083015261251a816124de565b9050919050565b60008151905061253081611b86565b92915050565b60006020828403121561254c5761254b611b72565b5b600061255a84828501612521565b91505092915050565b60006040820190506125786000830185611b3e565b6125856020830184611c6f565b9392505050565b60008115159050919050565b6125a18161258c565b81146125ac57600080fd5b50565b6000815190506125be81612598565b92915050565b6000602082840312156125da576125d9611b72565b5b60006125e8848285016125af565b91505092915050565b7f556e61626c6520746f207472616e736665720000000000000000000000000000600082015250565b6000612627601283611bea565b9150612632826125f1565b602082019050919050565b600060208201905081810360008301526126568161261a565b9050919050565b7f4e487b7100000000000000000000000000000000000000000000000000000000600052602260045260246000fd5b600060028204905060018216806126a457607f821691505b6020821081036126b7576126b661265d565b5b50919050565b7f4e487b7100000000000000000000000000000000000000000000000000000000600052603260045260246000fd5b7f4e487b7100000000000000000000000000000000000000000000000000000000600052601160045260246000fd5b600061272682611b7c565b91507fffffffffffffffffffffffffffffffffffffffffffffffffffffffffffffffff8203612758576127576126ec565b5b600182019050919050565b7f536f75726365206d75737420626520746865206f7261636c65206f662074686560008201527f2072657175657374000000000000000000000000000000000000000000000000602082015250565b60006127bf602883611bea565b91506127ca82612763565b604082019050919050565b600060208201905081810360008301526127ee816127b2565b9050919050565b60008190508160005260206000209050919050565b60006020601f8301049050919050565b600082821b905092915050565b6000600883026128577fffffffffffffffffffffffffffffffffffffffffffffffffffffffffffffffff8261281a565b612861868361281a565b95508019841693508086168417925050509392505050565b6000819050919050565b600061289e61289961289484611b7c565b612879565b611b7c565b9050919050565b6000819050919050565b6128b883612883565b6128cc6128c4826128a5565b848454612827565b825550505050565b600090565b6128e16128d4565b6128ec8184846128af565b505050565b5b81811015612910576129056000826128d9565b6001810190506128f2565b5050565b601f82111561295557612926816127f5565b61292f8461280a565b8101602085101561293e578190505b61295261294a8561280a565b8301826128f1565b50505b505050565b600082821c905092915050565b60006129786000198460080261295a565b1980831691505092915050565b60006129918383612967565b9150826002028217905092915050565b6129aa82611bdf565b67ffffffffffffffff8111156129c3576129c2611f1d565b5b6129cd825461268c565b6129d8828285612914565b600060209050601f831160018114612a0b57600084156129f9578287015190505b612a038582612985565b865550612a6b565b601f198416612a19866127f5565b60005b82811015612a4157848901518255600182019150602085019450602081019050612a1c565b86831015612a5e5784890151612a5a601f891682612967565b8355505b6001600288020188555050505b505050505050565b7f4f6e6c792063616c6c61626c65206279206f776e657200000000000000000000600082015250565b6000612aa9601683611bea565b9150612ab482612a73565b602082019050919050565b60006020820190508181036000830152612ad881612a9c565b9050919050565b6000612aea82611b7c565b9150612af583611b7c565b9250828201905080821115612b0d57612b0c6126ec565b5b92915050565b612b1c816121b9565b82525050565b612b2b816121ef565b82525050565b600081519050919050565b600082825260208201905092915050565b6000612b5882612b31565b612b628185612b3c565b9350612b72818560208601611bfb565b612b7b81611c25565b840191505092915050565b600061010082019050612b9c600083018b611b3e565b612ba9602083018a611c6f565b612bb66040830189612b13565b612bc36060830188611b3e565b612bd06080830187612b22565b612bdd60a0830186611c6f565b612bea60c0830185611c6f565b81810360e0830152612bfc8184612b4d565b90509998505050505050505050565b6000608082019050612c206000830187612b13565b612c2d6020830186611c6f565b612c3a6040830185612b22565b612c476060830184611c6f565b95945050505050565b7f43616e6e6f74207472616e7366657220746f2073656c66000000000000000000600082015250565b6000612c86601783611bea565b9150612c9182612c50565b602082019050919050565b60006020820190508181036000830152612cb581612c79565b9050919050565b6000612cd7612cd2612ccd84611b0c565b612879565b611b0c565b9050919050565b6000612ce982612cbc565b9050919050565b6000612cfb82612cde565b9050919050565b60008160601b9050919050565b6000612d1a82612d02565b9050919050565b6000612d2c82612d0f565b9050919050565b612d44612d3f82612cf0565b612d21565b82525050565b6000819050919050565b612d65612d6082611b7c565b612d4a565b82525050565b6000612d778285612d33565b601482019150612d878284612d54565b6020820191508190509392505050565b6000606082019050612dac6000830186611b3e565b612db96020830185611c6f565b8181036040830152612dcb8184612b4d565b9050949350505050565b7f756e61626c6520746f207472616e73666572416e6443616c6c20746f206f726160008201527f636c650000000000000000000000000000000000000000000000000000000000602082015250565b6000612e31602383611bea565b9150612e3c82612dd5565b604082019050919050565b60006020820190508181036000830152612e6081612e24565b9050919050565b7f4e487b7100000000000000000000000000000000000000000000000000000000600052601260045260246000fd5b6000612ea182611b7c565b9150612eac83611b7c565b925082612ebc57612ebb612e67565b5b828206905092915050565b6000612ed282611b7c565b9150612edd83611b7c565b9250828203905081811115612ef557612ef46126ec565b5b92915050565b6000612f0682611b7c565b9150612f1183611b7c565b9250828202612f1f81611b7c565b91508282048414831517612f3657612f356126ec565b5b5092915050565b60008160011c9050919050565b6000808291508390505b6001851115612f9457808604811115612f7057612f6f6126ec565b5b6001851615612f7f5780820291505b8081029050612f8d85612f3d565b9450612f54565b94509492505050565b600082612fad5760019050613069565b81612fbb5760009050613069565b8160018114612fd15760028114612fdb5761300a565b6001915050613069565b60ff841115612fed57612fec6126ec565b5b8360020a915084821115613004576130036126ec565b5b50613069565b5060208310610133831016604e8410600b841016171561303f5782820a90508381111561303a576130396126ec565b5b613069565b61304c8484846001612f4a565b92509050818404811115613063576130626126ec565b5b81810290505b9392505050565b600061307b82611b7c565b915061308683611b7c565b92506130b37fffffffffffffffffffffffffffffffffffffffffffffffffffffffffffffffff8484612f9d565b90509291505056fea2646970667358221220d7f6a127b57da511ca4d7b7c600715649e0279d3335307fd776da9d441420f3864736f6c63430008110033",
  "linkReferences": {},
  "deployedLinkReferences": {}
}